{
  "contractName": "Promise",
  "abi": [
    {
      "constant": true,
      "inputs": [],
      "name": "totPromise",
      "outputs": [
        {
          "name": "",
          "type": "uint256"
        }
      ],
      "payable": false,
      "stateMutability": "view",
      "type": "function",
      "signature": "0xbadef1a7"
    },
    {
      "inputs": [],
      "payable": false,
      "stateMutability": "nonpayable",
      "type": "constructor",
      "signature": "constructor"
    },
    {
      "anonymous": false,
      "inputs": [
        {
          "indexed": false,
          "name": "P2",
          "type": "address"
        },
        {
          "indexed": false,
          "name": "ind",
          "type": "uint256"
        },
        {
          "indexed": false,
          "name": "oath",
          "type": "string"
        }
      ],
      "name": "notify",
      "type": "event",
      "signature": "0xe9d1c3d5696419f67869a620f57ae38fdfefed6b5a9276b2d807fd10fced99d7"
    },
    {
      "constant": false,
      "inputs": [
        {
          "name": "builder",
          "type": "address"
        },
        {
          "name": "P2",
          "type": "address"
        },
        {
          "name": "_oath",
          "type": "string"
        }
      ],
      "name": "addPromise",
      "outputs": [
        {
          "name": "",
          "type": "uint256"
        }
      ],
      "payable": true,
      "stateMutability": "payable",
      "type": "function",
      "signature": "0x27afecf8"
    },
    {
      "constant": true,
      "inputs": [
        {
          "name": "ind",
          "type": "uint256"
        }
      ],
      "name": "viewPromise",
      "outputs": [
        {
          "name": "",
          "type": "string"
        }
      ],
      "payable": false,
      "stateMutability": "view",
      "type": "function",
      "signature": "0xca6f3717"
    },
    {
      "constant": false,
      "inputs": [
        {
          "name": "ind",
          "type": "uint256"
        }
      ],
      "name": "signPromise",
      "outputs": [],
      "payable": true,
      "stateMutability": "payable",
      "type": "function",
      "signature": "0xb3fe498c"
    },
    {
      "constant": false,
      "inputs": [
        {
          "name": "ind",
          "type": "uint256"
        }
      ],
      "name": "rejectPromise",
      "outputs": [],
      "payable": false,
      "stateMutability": "nonpayable",
      "type": "function",
      "signature": "0x5df9dc0c"
    },
    {
      "constant": true,
      "inputs": [],
      "name": "viewConfirmed",
      "outputs": [
        {
          "name": "",
          "type": "uint256[]"
        }
      ],
      "payable": false,
      "stateMutability": "view",
      "type": "function",
      "signature": "0x673a3d8d"
    },
    {
      "constant": true,
      "inputs": [],
      "name": "viewRejected",
      "outputs": [
        {
          "name": "",
          "type": "uint256[]"
        }
      ],
      "payable": false,
      "stateMutability": "view",
      "type": "function",
      "signature": "0x0a34974b"
    },
    {
      "constant": true,
      "inputs": [],
      "name": "viewUnConfirmed",
      "outputs": [
        {
          "name": "",
          "type": "uint256[]"
        }
      ],
      "payable": false,
      "stateMutability": "view",
      "type": "function",
      "signature": "0x93156458"
    }
  ],
  "bytecode": "0x608060405234801561001057600080fd5b5033600160006101000a81548173ffffffffffffffffffffffffffffffffffffffff021916908373ffffffffffffffffffffffffffffffffffffffff160217905550611c51806100616000396000f3fe60806040526004361061008e576000357c0100000000000000000000000000000000000000000000000000000000900463ffffffff1680630a34974b1461009357806327afecf8146100ff5780635df9dc0c1461020e578063673a3d8d1461024957806393156458146102b5578063b3fe498c14610321578063badef1a71461034f578063ca6f37171461037a575b600080fd5b34801561009f57600080fd5b506100a861042e565b6040518080602001828103825283818151815260200191508051906020019060200280838360005b838110156100eb5780820151818401526020810190506100d0565b505050509050019250505060405180910390f35b6101f86004803603606081101561011557600080fd5b81019080803573ffffffffffffffffffffffffffffffffffffffff169060200190929190803573ffffffffffffffffffffffffffffffffffffffff1690602001909291908035906020019064010000000081111561017257600080fd5b82018360208201111561018457600080fd5b803590602001918460018302840111640100000000831117156101a657600080fd5b91908080601f016020809104026020016040519081016040528093929190818152602001838380828437600081840152601f19601f8201169050808301925050505050505091929192905050506104c3565b6040518082815260200191505060405180910390f35b34801561021a57600080fd5b506102476004803603602081101561023157600080fd5b81019080803590602001909291905050506108fe565b005b34801561025557600080fd5b5061025e61103c565b6040518080602001828103825283818151815260200191508051906020019060200280838360005b838110156102a1578082015181840152602081019050610286565b505050509050019250505060405180910390f35b3480156102c157600080fd5b506102ca6110d1565b6040518080602001828103825283818151815260200191508051906020019060200280838360005b8381101561030d5780820151818401526020810190506102f2565b505050509050019250505060405180910390f35b61034d6004803603602081101561033757600080fd5b8101908080359060200190929190505050611166565b005b34801561035b57600080fd5b5061036461167a565b6040518082815260200191505060405180910390f35b34801561038657600080fd5b506103b36004803603602081101561039d57600080fd5b8101908080359060200190929190505050611680565b6040518080602001828103825283818151815260200191508051906020019080838360005b838110156103f35780820151818401526020810190506103d8565b50505050905090810190601f1680156104205780820380516001836020036101000a031916815260200191505b509250505060405180910390f35b6060600660003373ffffffffffffffffffffffffffffffffffffffff1673ffffffffffffffffffffffffffffffffffffffff1681526020019081526020016000208054806020026020016040519081016040528092919081815260200182805480156104b957602002820191906000526020600020905b8154815260200190600101908083116104a5575b5050505050905090565b60008373ffffffffffffffffffffffffffffffffffffffff163373ffffffffffffffffffffffffffffffffffffffff161415156104ff57600080fd5b600160009054906101000a900473ffffffffffffffffffffffffffffffffffffffff1673ffffffffffffffffffffffffffffffffffffffff166108fc349081150290604051600060405180830381858888f19350505050158015610567573d6000803e3d6000fd5b50600080815480929190600101919050555060a060405190810160405280600054815260200160408051908101604052808773ffffffffffffffffffffffffffffffffffffffff16815260200160011515815250815260200160408051908101604052808673ffffffffffffffffffffffffffffffffffffffff1681526020016000151581525081526020018381526020016000151581525060026000805481526020019081526020016000206000820151816000015560208201518160010160008201518160000160006101000a81548173ffffffffffffffffffffffffffffffffffffffff021916908373ffffffffffffffffffffffffffffffffffffffff16021790555060208201518160000160146101000a81548160ff021916908315150217905550505060408201518160020160008201518160000160006101000a81548173ffffffffffffffffffffffffffffffffffffffff021916908373ffffffffffffffffffffffffffffffffffffffff16021790555060208201518160000160146101000a81548160ff0219169083151502179055505050606082015181600301908051906020019061071e929190611af9565b5060808201518160040160006101000a81548160ff021916908315150217905550905050600760008573ffffffffffffffffffffffffffffffffffffffff1673ffffffffffffffffffffffffffffffffffffffff1681526020019081526020016000206000549080600181540180825580915050906001820390600052602060002001600090919290919091505550600760008473ffffffffffffffffffffffffffffffffffffffff1673ffffffffffffffffffffffffffffffffffffffff16815260200190815260200160002060005490806001815401808255809150509060018203906000526020600020016000909192909190915055507fe9d1c3d5696419f67869a620f57ae38fdfefed6b5a9276b2d807fd10fced99d78360005484604051808473ffffffffffffffffffffffffffffffffffffffff1673ffffffffffffffffffffffffffffffffffffffff16815260200183815260200180602001828103825283818151815260200191508051906020019080838360005b838110156108b657808201518184015260208101905061089b565b50505050905090810190601f1680156108e35780820380516001836020036101000a031916815260200191505b5094505050505060405180910390a160005490509392505050565b6002600082815260200190815260200160002060020160000160009054906101000a900473ffffffffffffffffffffffffffffffffffffffff1673ffffffffffffffffffffffffffffffffffffffff163373ffffffffffffffffffffffffffffffffffffffff1614151561097157600080fd5b60006002600083815260200190815260200160002060040160006101000a81548160ff02191690831515021790555060026000828152602001908152602001600020600460008381526020019081526020016000206000820154816000015560018201816001016000820160009054906101000a900473ffffffffffffffffffffffffffffffffffffffff168160000160006101000a81548173ffffffffffffffffffffffffffffffffffffffff021916908373ffffffffffffffffffffffffffffffffffffffff1602179055506000820160149054906101000a900460ff168160000160146101000a81548160ff021916908315150217905550505060028201816002016000820160009054906101000a900473ffffffffffffffffffffffffffffffffffffffff168160000160006101000a81548173ffffffffffffffffffffffffffffffffffffffff021916908373ffffffffffffffffffffffffffffffffffffffff1602179055506000820160149054906101000a900460ff168160000160146101000a81548160ff021916908315150217905550505060038201816003019080546001816001161561010002031660029004610b33929190611b79565b506004820160009054906101000a900460ff168160040160006101000a81548160ff021916908315150217905550905050600660003373ffffffffffffffffffffffffffffffffffffffff1673ffffffffffffffffffffffffffffffffffffffff168152602001908152602001600020819080600181540180825580915050906001820390600052602060002001600090919290919091505550600660006002600084815260200190815260200160002060010160000160009054906101000a900473ffffffffffffffffffffffffffffffffffffffff1673ffffffffffffffffffffffffffffffffffffffff1673ffffffffffffffffffffffffffffffffffffffff1681526020019081526020016000208190806001815401808255809150509060018203906000526020600020016000909192909190915055507fe9d1c3d5696419f67869a620f57ae38fdfefed6b5a9276b2d807fd10fced99d7338260026000858152602001908152602001600020600301604051808473ffffffffffffffffffffffffffffffffffffffff1673ffffffffffffffffffffffffffffffffffffffff16815260200183815260200180602001828103825283818154600181600116156101000203166002900481526020019150805460018160011615610100020316600290048015610d695780601f10610d3e57610100808354040283529160200191610d69565b820191906000526020600020905b815481529060010190602001808311610d4c57829003601f168201915b505094505050505060405180910390a16060600760003373ffffffffffffffffffffffffffffffffffffffff1673ffffffffffffffffffffffffffffffffffffffff168152602001908152602001600020805480602002602001604051908101604052809291908181526020018280548015610e0457602002820191906000526020600020905b815481526020019060010190808311610df0575b5050505050905060005b8151811015610e9e57828282815181101515610e2657fe5b906020019060200201511415610e9157600760003373ffffffffffffffffffffffffffffffffffffffff1673ffffffffffffffffffffffffffffffffffffffff16815260200190815260200160002081815481101515610e8257fe5b90600052602060002001600090555b8080600101915050610e0e565b506060600760006002600086815260200190815260200160002060010160000160009054906101000a900473ffffffffffffffffffffffffffffffffffffffff1673ffffffffffffffffffffffffffffffffffffffff1673ffffffffffffffffffffffffffffffffffffffff168152602001908152602001600020805480602002602001604051908101604052809291908181526020018280548015610f6357602002820191906000526020600020905b815481526020019060010190808311610f4f575b5050505050905060005b815181101561103657838282815181101515610f8557fe5b90602001906020020151141561102957600760006002600087815260200190815260200160002060010160000160009054906101000a900473ffffffffffffffffffffffffffffffffffffffff1673ffffffffffffffffffffffffffffffffffffffff1673ffffffffffffffffffffffffffffffffffffffff1681526020019081526020016000208181548110151561101a57fe5b90600052602060002001600090555b8080600101915050610f6d565b50505050565b6060600560003373ffffffffffffffffffffffffffffffffffffffff1673ffffffffffffffffffffffffffffffffffffffff1681526020019081526020016000208054806020026020016040519081016040528092919081815260200182805480156110c757602002820191906000526020600020905b8154815260200190600101908083116110b3575b5050505050905090565b6060600760003373ffffffffffffffffffffffffffffffffffffffff1673ffffffffffffffffffffffffffffffffffffffff16815260200190815260200160002080548060200260200160405190810160405280929190818152602001828054801561115c57602002820191906000526020600020905b815481526020019060010190808311611148575b5050505050905090565b6002600082815260200190815260200160002060020160000160009054906101000a900473ffffffffffffffffffffffffffffffffffffffff1673ffffffffffffffffffffffffffffffffffffffff163373ffffffffffffffffffffffffffffffffffffffff161415156111d957600080fd5b60016002600083815260200190815260200160002060020160000160146101000a81548160ff02191690831515021790555060016002600083815260200190815260200160002060040160006101000a81548160ff0219169083151502179055506112438161181a565b600160009054906101000a900473ffffffffffffffffffffffffffffffffffffffff1673ffffffffffffffffffffffffffffffffffffffff166108fc349081150290604051600060405180830381858888f193505050501580156112ab573d6000803e3d6000fd5b50600560003373ffffffffffffffffffffffffffffffffffffffff1673ffffffffffffffffffffffffffffffffffffffff168152602001908152602001600020819080600181540180825580915050906001820390600052602060002001600090919290919091505550600560006002600084815260200190815260200160002060010160000160009054906101000a900473ffffffffffffffffffffffffffffffffffffffff1673ffffffffffffffffffffffffffffffffffffffff1673ffffffffffffffffffffffffffffffffffffffff1681526020019081526020016000208190806001815401808255809150509060018203906000526020600020016000909192909190915055506060600760003373ffffffffffffffffffffffffffffffffffffffff1673ffffffffffffffffffffffffffffffffffffffff16815260200190815260200160002080548060200260200160405190810160405280929190818152602001828054801561144257602002820191906000526020600020905b81548152602001906001019080831161142e575b5050505050905060005b81518110156114dc5782828281518110151561146457fe5b9060200190602002015114156114cf57600760003373ffffffffffffffffffffffffffffffffffffffff1673ffffffffffffffffffffffffffffffffffffffff168152602001908152602001600020818154811015156114c057fe5b90600052602060002001600090555b808060010191505061144c565b506060600760006002600086815260200190815260200160002060010160000160009054906101000a900473ffffffffffffffffffffffffffffffffffffffff1673ffffffffffffffffffffffffffffffffffffffff1673ffffffffffffffffffffffffffffffffffffffff1681526020019081526020016000208054806020026020016040519081016040528092919081815260200182805480156115a157602002820191906000526020600020905b81548152602001906001019080831161158d575b5050505050905060005b8151811015611674578382828151811015156115c357fe5b90602001906020020151141561166757600760006002600087815260200190815260200160002060010160000160009054906101000a900473ffffffffffffffffffffffffffffffffffffffff1673ffffffffffffffffffffffffffffffffffffffff1673ffffffffffffffffffffffffffffffffffffffff1681526020019081526020016000208181548110151561165857fe5b90600052602060002001600090555b80806001019150506115ab565b50505050565b60005481565b60606002600083815260200190815260200160002060010160000160009054906101000a900473ffffffffffffffffffffffffffffffffffffffff1673ffffffffffffffffffffffffffffffffffffffff163373ffffffffffffffffffffffffffffffffffffffff16148061175957506002600083815260200190815260200160002060020160000160009054906101000a900473ffffffffffffffffffffffffffffffffffffffff1673ffffffffffffffffffffffffffffffffffffffff163373ffffffffffffffffffffffffffffffffffffffff16145b151561176457600080fd5b600260008381526020019081526020016000206003018054600181600116156101000203166002900480601f01602080910402602001604051908101604052809291908181526020018280546001816001161561010002031660029004801561180e5780601f106117e35761010080835404028352916020019161180e565b820191906000526020600020905b8154815290600101906020018083116117f157829003601f168201915b50505050509050919050565b6002600082815260200190815260200160002060010160000160009054906101000a900473ffffffffffffffffffffffffffffffffffffffff1673ffffffffffffffffffffffffffffffffffffffff163373ffffffffffffffffffffffffffffffffffffffff1614806118f157506002600082815260200190815260200160002060020160000160009054906101000a900473ffffffffffffffffffffffffffffffffffffffff1673ffffffffffffffffffffffffffffffffffffffff163373ffffffffffffffffffffffffffffffffffffffff16145b15156118fc57600080fd5b600115156002600083815260200190815260200160002060040160009054906101000a900460ff16151514151561193257600080fd5b60026000828152602001908152602001600020600360008381526020019081526020016000206000820154816000015560018201816001016000820160009054906101000a900473ffffffffffffffffffffffffffffffffffffffff168160000160006101000a81548173ffffffffffffffffffffffffffffffffffffffff021916908373ffffffffffffffffffffffffffffffffffffffff1602179055506000820160149054906101000a900460ff168160000160146101000a81548160ff021916908315150217905550505060028201816002016000820160009054906101000a900473ffffffffffffffffffffffffffffffffffffffff168160000160006101000a81548173ffffffffffffffffffffffffffffffffffffffff021916908373ffffffffffffffffffffffffffffffffffffffff1602179055506000820160149054906101000a900460ff168160000160146101000a81548160ff021916908315150217905550505060038201816003019080546001816001161561010002031660029004611ac5929190611b79565b506004820160009054906101000a900460ff168160040160006101000a81548160ff02191690831515021790555090505050565b828054600181600116156101000203166002900490600052602060002090601f016020900481019282601f10611b3a57805160ff1916838001178555611b68565b82800160010185558215611b68579182015b82811115611b67578251825591602001919060010190611b4c565b5b509050611b759190611c00565b5090565b828054600181600116156101000203166002900490600052602060002090601f016020900481019282601f10611bb25780548555611bef565b82800160010185558215611bef57600052602060002091601f016020900482015b82811115611bee578254825591600101919060010190611bd3565b5b509050611bfc9190611c00565b5090565b611c2291905b80821115611c1e576000816000905550600101611c06565b5090565b9056fea165627a7a72305820c3c5f011ec0535b7d917494c578fc375b76b16ef1d586fa4cb8b80faf3882ddf0029",
  "source": "//pragma solidity ^0.5.1;\npragma solidity >=0.4.22 <0.8.0;\n\n\ncontract Promise{\n    uint256 public totPromise;//to index the promises\n    address payable manager;\n    mapping(uint256=>Prom) unConfirmedProm;         // to hold unconfirmed promises initially before they are signed by the participating parties.\n    mapping(uint256=>Prom) ConfirmedProm;           // to hold confirmed promises.\n    mapping(uint256=>Prom) rejectedProm;     // to hold rejected promises i.e promises rejected by any one party.\n    mapping(address=>uint256[]) Confirmed;   //Confirmed promises per user address\n    mapping(address=>uint256[]) Rejected;    //rejected promises per user address\n    mapping(address=>uint256[]) unConfirmed; //unConfirmed promises per user\n      \n    \n    constructor() public {\n        manager=msg.sender;\n    }\n    \n    \n    \n    \n    modifier isManager(){\n        require(msg.sender==manager);\n        _;\n    }\n    \n    \n    \n    /* this event is to notify the other participating party of the promise being created*/\n    event notify(\n        address P2,\n        uint256 ind,\n        string oath\n        );\n    \n    \n    \n    \n    /* a struct that holds the address and the boolean variable annotating that parties commitment status*/\n    struct partyStatus{  \n        address P;\n        bool commitment;\n    }\n    \n    \n    \n    \n    /*a structure holding our promise and the parties involved and their commitment towards the promise*/\n    struct Prom{\n        uint256 promIndex;\n        partyStatus P1;\n        partyStatus P2;\n        string oath;\n        bool status;\n        \n    }\n    \n   \n   \n   \n   \n    /*this function is used by one of the parties called a builder to create the unConfirmedPrompromise,\n    the address of the second party and the oath are also passed as parameters.*/\n    /* no malicious builder would want to call this function because this function takes in ehters and passes them to the manager.*/\n     \n    function addPromise(address builder,address P2,string memory _oath) public payable returns(uint256){\n        require(msg.sender==builder);\n        //require(msg.value==2 e);\n        manager.transfer(msg.value);        /*ethers are passed to the manager,,,calling addPromise function would cost the builder*/\n        \n        totPromise++;\n\n        unConfirmedProm[totPromise]=Prom(totPromise,partyStatus(builder,true),partyStatus(P2,false), _oath,false);\n        \n        unConfirmed[builder].push(totPromise); // pushing the promise index into the unconfirmed  mapping keyed by the address.\n        unConfirmed[P2].push(totPromise);\n        \n        \n        emit notify(P2,totPromise,_oath);   /* the event is emitted,,,, the other part gets to know about the promoise being created \n                                            by its name as one of the involved parties*/\n        return totPromise;\n        \n    }\n    \n    \n    \n   \n   \n    /*this function is used by the involved parties to view the promise */\n    \n    function viewPromise(uint256 ind) public view returns(string memory){\n        require(msg.sender==unConfirmedProm[ind].P1.P || msg.sender==unConfirmedProm[ind].P2.P);\n        return unConfirmedProm[ind].oath;\n        \n        \n        \n        \n    }\n    \n    \n    \n    \n    \n    /* this function is used by the other party to sign the promise and hence \n    confirms the promise*/\n    function signPromise(uint256 ind) public payable {\n        require(msg.sender==unConfirmedProm[ind].P2.P);\n        //require(msg.value==2 ethers);\n        unConfirmedProm[ind].P2.commitment=true;\n        unConfirmedProm[ind].status=true;\n        confirmpromise(ind);\n        manager.transfer(msg.value);\n        \n        Confirmed[msg.sender].push(ind);                //adding the promise to the Confirmed list of promises\n        Confirmed[unConfirmedProm[ind].P1.P].push(ind); //adding the promise to the Confirmed list of promises\n        \n        \n        // deleting the entries from the unConfirmed mapping once the promise gets signed.\n        uint256[] memory l;\n        l=unConfirmed[msg.sender];\n        for(uint i;i<l.length;i++){\n            if (l[i]==ind){\n                delete unConfirmed[msg.sender][i];\n            }\n        }\n        \n        uint256[] memory l1;\n        l1=unConfirmed[unConfirmedProm[ind].P1.P];\n        for(uint i;i<l1.length;i++){\n            if (l1[i]==ind){\n                delete unConfirmed[unConfirmedProm[ind].P1.P][i];\n            }\n        }\n        \n    }\n    \n    \n    \n    \n    \n    \n    /*this function is used by the non-builder party to reject the promise. \n    The promise after being rejected is added to the rejectPromise mapping */\n    function rejectPromise(uint256 ind) public  {\n        require(msg.sender==unConfirmedProm[ind].P2.P);\n        unConfirmedProm[ind].status=false;\n        rejectedProm[ind]=unConfirmedProm[ind];\n        Rejected[msg.sender].push(ind);                 // insert the rejected promise into the rejected mapping\n        Rejected[unConfirmedProm[ind].P1.P].push(ind);  // insert the rejected promise into the rejected mapping\n        emit notify(msg.sender,ind,unConfirmedProm[ind].oath);\n        \n        uint256[] memory l;                    // deleting the promise from unConfirmed mapping.\n        l=unConfirmed[msg.sender];\n        for(uint i;i<l.length;i++){\n            if (l[i]==ind){\n                delete unConfirmed[msg.sender][i];\n            }\n        }\n        \n        uint256[] memory l1;\n        l1=unConfirmed[unConfirmedProm[ind].P1.P];\n        for(uint i;i<l1.length;i++){\n            if (l1[i]==ind){\n                delete unConfirmed[unConfirmedProm[ind].P1.P][i];\n            }\n        }\n        \n    }\n    \n    \n    \n    \n    \n    \n    \n/* this function is used to confirm promises and transfer them from\n   unConfirmedProm to ConfirmedProm mapping*/\n   \n    function confirmpromise(uint256 ind) internal {\n        require(msg.sender==unConfirmedProm[ind].P1.P || msg.sender==unConfirmedProm[ind].P2.P);\n        require(unConfirmedProm[ind].status==true);\n        ConfirmedProm[ind]=unConfirmedProm[ind];\n        \n    }\n    \n    \n    \n    \n    \n/* this function would be used to view the Confirmed Promises by their owner. */ \n\n    function viewConfirmed() public view returns(uint256[] memory){\n       \n       return Confirmed[msg.sender];\n        \n        \n    }\n    \n    \n    \n    \n    \n    \n    \n/* this function would be used to view the Confirmed Promises by their owner. */ \n    \n    function viewRejected() public view returns(uint256[] memory){\n       \n        return Rejected[msg.sender];\n        \n        \n    }\n    \n    \n    \n    function viewUnConfirmed() public view returns(uint256[] memory){\n       \n        return unConfirmed[msg.sender];\n        \n        \n    }\n    \n    \n    \n    \n}\n",
  "sourcePath": "/Users/agnieszka/Github/promise/Nuamaan/contracts/improvedPromise.sol",
  "compiler": {
    "name": "solc",
    "version": "0.5.0+commit.1d4f565a.Emscripten.clang"
  },
  "schemaVersion": "3.0.1",
  "updatedAt": "2020-11-30T16:47:18.463Z",
  "devdoc": {
    "methods": {}
  },
  "userdoc": {
    "methods": {}
  }
}