{
  "contractName": "Promise",
  "abi": [
    {
      "inputs": [],
      "payable": false,
      "stateMutability": "nonpayable",
      "type": "constructor"
    },
    {
      "anonymous": false,
      "inputs": [
        {
          "indexed": false,
          "internalType": "address",
          "name": "P2",
          "type": "address"
        },
        {
          "indexed": false,
          "internalType": "uint256",
          "name": "ind",
          "type": "uint256"
        },
        {
          "indexed": false,
          "internalType": "string",
          "name": "oath",
          "type": "string"
        }
      ],
      "name": "notify",
      "type": "event"
    },
    {
      "constant": true,
      "inputs": [],
      "name": "totPromise",
      "outputs": [
        {
          "internalType": "uint256",
          "name": "",
          "type": "uint256"
        }
      ],
      "payable": false,
      "stateMutability": "view",
      "type": "function"
    },
    {
      "constant": false,
      "inputs": [
        {
          "internalType": "address",
          "name": "builder",
          "type": "address"
        },
        {
          "internalType": "address",
          "name": "P2",
          "type": "address"
        },
        {
          "internalType": "string",
          "name": "_oath",
          "type": "string"
        }
      ],
      "name": "addPromise",
      "outputs": [],
      "payable": true,
      "stateMutability": "payable",
      "type": "function"
    },
    {
      "constant": true,
      "inputs": [
        {
          "internalType": "uint256",
          "name": "ind",
          "type": "uint256"
        }
      ],
      "name": "viewPromise",
      "outputs": [
        {
          "internalType": "string",
          "name": "",
          "type": "string"
        }
      ],
      "payable": false,
      "stateMutability": "view",
      "type": "function"
    },
    {
      "constant": false,
      "inputs": [
        {
          "internalType": "uint256",
          "name": "ind",
          "type": "uint256"
        }
      ],
      "name": "signPromise",
      "outputs": [],
      "payable": true,
      "stateMutability": "payable",
      "type": "function"
    },
    {
      "constant": false,
      "inputs": [
        {
          "internalType": "uint256",
          "name": "ind",
          "type": "uint256"
        }
      ],
      "name": "rejectPromise",
      "outputs": [],
      "payable": true,
      "stateMutability": "payable",
      "type": "function"
    }
  ],
  "bytecode": "0x608060405234801561001057600080fd5b5033600160006101000a81548173ffffffffffffffffffffffffffffffffffffffff021916908373ffffffffffffffffffffffffffffffffffffffff16021790555061109c806100616000396000f3fe60806040526004361061004a5760003560e01c806327afecf81461004f5780635df9dc0c1461014a578063b3fe498c14610178578063badef1a7146101a6578063ca6f3717146101d1575b600080fd5b6101486004803603606081101561006557600080fd5b81019080803573ffffffffffffffffffffffffffffffffffffffff169060200190929190803573ffffffffffffffffffffffffffffffffffffffff169060200190929190803590602001906401000000008111156100c257600080fd5b8201836020820111156100d457600080fd5b803590602001918460018302840111640100000000831117156100f657600080fd5b91908080601f016020809104026020016040519081016040528093929190818152602001838380828437600081840152601f19601f820116905080830192505050505050509192919290505050610285565b005b6101766004803603602081101561016057600080fd5b81019080803590602001909291905050506105de565b005b6101a46004803603602081101561018e57600080fd5b8101908080359060200190929190505050610845565b005b3480156101b257600080fd5b506101bb61098c565b6040518082815260200191505060405180910390f35b3480156101dd57600080fd5b5061020a600480360360208110156101f457600080fd5b8101908080359060200190929190505050610992565b6040518080602001828103825283818151815260200191508051906020019080838360005b8381101561024a57808201518184015260208101905061022f565b50505050905090810190601f1680156102775780820380516001836020036101000a031916815260200191505b509250505060405180910390f35b8273ffffffffffffffffffffffffffffffffffffffff163373ffffffffffffffffffffffffffffffffffffffff16146102bd57600080fd5b60008081548092919060010191905055506040518060a00160405280600054815260200160405180604001604052808673ffffffffffffffffffffffffffffffffffffffff16815260200160011515815250815260200160405180604001604052808573ffffffffffffffffffffffffffffffffffffffff1681526020016000151581525081526020018281526020016000151581525060026000805481526020019081526020016000206000820151816000015560208201518160010160008201518160000160006101000a81548173ffffffffffffffffffffffffffffffffffffffff021916908373ffffffffffffffffffffffffffffffffffffffff16021790555060208201518160000160146101000a81548160ff021916908315150217905550505060408201518160020160008201518160000160006101000a81548173ffffffffffffffffffffffffffffffffffffffff021916908373ffffffffffffffffffffffffffffffffffffffff16021790555060208201518160000160146101000a81548160ff02191690831515021790555050506060820151816003019080519060200190610472929190610f3b565b5060808201518160040160006101000a81548160ff021916908315150217905550905050600160009054906101000a900473ffffffffffffffffffffffffffffffffffffffff1673ffffffffffffffffffffffffffffffffffffffff166108fc349081150290604051600060405180830381858888f193505050501580156104fe573d6000803e3d6000fd5b507fe9d1c3d5696419f67869a620f57ae38fdfefed6b5a9276b2d807fd10fced99d78260005483604051808473ffffffffffffffffffffffffffffffffffffffff1673ffffffffffffffffffffffffffffffffffffffff16815260200183815260200180602001828103825283818151815260200191508051906020019080838360005b8381101561059d578082015181840152602081019050610582565b50505050905090810190601f1680156105ca5780820380516001836020036101000a031916815260200191505b5094505050505060405180910390a1505050565b3373ffffffffffffffffffffffffffffffffffffffff166002600083815260200190815260200160002060020160000160009054906101000a900473ffffffffffffffffffffffffffffffffffffffff1673ffffffffffffffffffffffffffffffffffffffff161461064f57600080fd5b60006002600083815260200190815260200160002060040160006101000a81548160ff02191690831515021790555060026000828152602001908152602001600020600460008381526020019081526020016000206000820154816000015560018201816001016000820160009054906101000a900473ffffffffffffffffffffffffffffffffffffffff168160000160006101000a81548173ffffffffffffffffffffffffffffffffffffffff021916908373ffffffffffffffffffffffffffffffffffffffff1602179055506000820160149054906101000a900460ff168160000160146101000a81548160ff021916908315150217905550505060028201816002016000820160009054906101000a900473ffffffffffffffffffffffffffffffffffffffff168160000160006101000a81548173ffffffffffffffffffffffffffffffffffffffff021916908373ffffffffffffffffffffffffffffffffffffffff1602179055506000820160149054906101000a900460ff168160000160146101000a81548160ff021916908315150217905550505060038201816003019080546001816001161561010002031660029004610811929190610fbb565b506004820160009054906101000a900460ff168160040160006101000a81548160ff02191690831515021790555090505050565b3373ffffffffffffffffffffffffffffffffffffffff166002600083815260200190815260200160002060020160000160009054906101000a900473ffffffffffffffffffffffffffffffffffffffff1673ffffffffffffffffffffffffffffffffffffffff16146108b657600080fd5b60016002600083815260200190815260200160002060020160000160146101000a81548160ff02191690831515021790555060016002600083815260200190815260200160002060040160006101000a81548160ff02191690831515021790555061092081610c60565b600160009054906101000a900473ffffffffffffffffffffffffffffffffffffffff1673ffffffffffffffffffffffffffffffffffffffff166108fc349081150290604051600060405180830381858888f19350505050158015610988573d6000803e3d6000fd5b5050565b60005481565b60606002600083815260200190815260200160002060020160000160009054906101000a900473ffffffffffffffffffffffffffffffffffffffff1673ffffffffffffffffffffffffffffffffffffffff163373ffffffffffffffffffffffffffffffffffffffff161480610a6b57506002600083815260200190815260200160002060010160000160009054906101000a900473ffffffffffffffffffffffffffffffffffffffff1673ffffffffffffffffffffffffffffffffffffffff163373ffffffffffffffffffffffffffffffffffffffff16145b80610ac35750600160009054906101000a900473ffffffffffffffffffffffffffffffffffffffff1673ffffffffffffffffffffffffffffffffffffffff163373ffffffffffffffffffffffffffffffffffffffff16145b80610b3257506003600083815260200190815260200160002060020160000160009054906101000a900473ffffffffffffffffffffffffffffffffffffffff1673ffffffffffffffffffffffffffffffffffffffff163373ffffffffffffffffffffffffffffffffffffffff16145b80610ba157506003600083815260200190815260200160002060010160000160009054906101000a900473ffffffffffffffffffffffffffffffffffffffff1673ffffffffffffffffffffffffffffffffffffffff163373ffffffffffffffffffffffffffffffffffffffff16145b610baa57600080fd5b600260008381526020019081526020016000206003018054600181600116156101000203166002900480601f016020809104026020016040519081016040528092919081815260200182805460018160011615610100020316600290048015610c545780601f10610c2957610100808354040283529160200191610c54565b820191906000526020600020905b815481529060010190602001808311610c3757829003601f168201915b50505050509050919050565b6002600082815260200190815260200160002060010160000160009054906101000a900473ffffffffffffffffffffffffffffffffffffffff1673ffffffffffffffffffffffffffffffffffffffff163373ffffffffffffffffffffffffffffffffffffffff161480610d3757506002600082815260200190815260200160002060020160000160009054906101000a900473ffffffffffffffffffffffffffffffffffffffff1673ffffffffffffffffffffffffffffffffffffffff163373ffffffffffffffffffffffffffffffffffffffff16145b610d4057600080fd5b600115156002600083815260200190815260200160002060040160009054906101000a900460ff16151514610d7457600080fd5b60026000828152602001908152602001600020600360008381526020019081526020016000206000820154816000015560018201816001016000820160009054906101000a900473ffffffffffffffffffffffffffffffffffffffff168160000160006101000a81548173ffffffffffffffffffffffffffffffffffffffff021916908373ffffffffffffffffffffffffffffffffffffffff1602179055506000820160149054906101000a900460ff168160000160146101000a81548160ff021916908315150217905550505060028201816002016000820160009054906101000a900473ffffffffffffffffffffffffffffffffffffffff168160000160006101000a81548173ffffffffffffffffffffffffffffffffffffffff021916908373ffffffffffffffffffffffffffffffffffffffff1602179055506000820160149054906101000a900460ff168160000160146101000a81548160ff021916908315150217905550505060038201816003019080546001816001161561010002031660029004610f07929190610fbb565b506004820160009054906101000a900460ff168160040160006101000a81548160ff02191690831515021790555090505050565b828054600181600116156101000203166002900490600052602060002090601f016020900481019282601f10610f7c57805160ff1916838001178555610faa565b82800160010185558215610faa579182015b82811115610fa9578251825591602001919060010190610f8e565b5b509050610fb79190611042565b5090565b828054600181600116156101000203166002900490600052602060002090601f016020900481019282601f10610ff45780548555611031565b8280016001018555821561103157600052602060002091601f016020900482015b82811115611030578254825591600101919060010190611015565b5b50905061103e9190611042565b5090565b61106491905b80821115611060576000816000905550600101611048565b5090565b9056fea265627a7a72315820f4de5c56f158cacac57cd91c4f20dd8f6fda8b0f5cc6820e1345ce0d132e5a3964736f6c63430005100032",
  "source": "//pragma solidity ^0.5.1;\r\npragma solidity >=0.4.22 <0.8.0;\r\n\r\ncontract Promise{\r\n    uint256 public totPromise;//to index the promises\r\n    address payable manager;\r\n    mapping(uint256=>Prom) unConfirmedProm;// to hold unconfirmed promises initially before they are signed by the participating parties.\r\n    mapping(uint256=>Prom) ConfirmedProm;// to hold confirmed promises.\r\n    mapping(uint256=>Prom) rejectedProm;// to hold rejected promises i.e promises rejected by any one party.\r\n    \r\n    \r\n    constructor() public {\r\n        manager=msg.sender;\r\n    }\r\n    \r\n    \r\n    modifier isManager(){\r\n        require(msg.sender==manager);\r\n        _;\r\n    }\r\n    \r\n    \r\n    \r\n    /* this event is to notify the other participating party of the promise being created*/\r\n    event notify(\r\n        address P2,\r\n        uint256 ind,\r\n        string oath\r\n        );\r\n    \r\n    \r\n    \r\n    \r\n    /* a struct that holds the address and the boolean variable annotating that parties commitment status*/\r\n    struct partyStatus{  \r\n        address P;\r\n        bool commitment;\r\n    }\r\n    \r\n    \r\n    \r\n    \r\n    /*a structure holding our promise and the parties involved and their commitment towards the promise*/\r\n    struct Prom{\r\n        uint256 promIndex;\r\n        partyStatus P1;\r\n        partyStatus P2;\r\n        string oath;\r\n        bool status;\r\n        \r\n    }\r\n    \r\n   \r\n   \r\n   \r\n   \r\n    /*this function is used by one of the parties called a builder to create the unConfirmedPrompromise,\r\n    the address of the second party and the oath are also passed as parameters.*/\r\n    /* no malicious builder would want to call this function because this function takes in ehters and passes them to the manager.*/\r\n     \r\n    function addPromise(address builder,address P2,string memory _oath) public payable {\r\n        require(msg.sender==builder);\r\n        totPromise++;\r\n\r\n        unConfirmedProm[totPromise]=Prom(totPromise,partyStatus(builder,true),partyStatus(P2,false), _oath,false);\r\n        \r\n        manager.transfer(msg.value);        /*ethers are passed to the manager,,,calling addPromise function would cost the builder*/\r\n        \r\n        emit notify(P2,totPromise,_oath);   /* the event is emitted,,,, the other part gets to know about the promoise being created \r\n                                            by its name as one of the involved parties*/\r\n        \r\n        \r\n    }\r\n    \r\n    \r\n    \r\n   \r\n   \r\n    /*this function is used by the involved parties to view the promise */\r\n    \r\n    function viewPromise(uint256 ind) public view returns(string memory){\r\n        require(msg.sender==unConfirmedProm[ind].P2.P || msg.sender==unConfirmedProm[ind].P1.P || msg.sender==manager||msg.sender==ConfirmedProm[ind].P2.P || msg.sender==ConfirmedProm[ind].P1.P);\r\n        return unConfirmedProm[ind].oath;\r\n        \r\n        \r\n        \r\n        \r\n    }\r\n    \r\n    \r\n    \r\n    \r\n    \r\n    /* this function is used by the other party to sign the promise and hence \r\n    confirms the promise*/\r\n    function signPromise(uint256 ind) public payable {\r\n        require(unConfirmedProm[ind].P2.P==msg.sender);\r\n        unConfirmedProm[ind].P2.commitment=true;\r\n        unConfirmedProm[ind].status=true;\r\n        confirmpromise(ind);\r\n        manager.transfer(msg.value);\r\n    }\r\n    \r\n    \r\n    \r\n    \r\n    \r\n    \r\n    /*this function is used by the non-builder party to reject the promise. \r\n    The promise after being rejected is added to the rejectPromise mapping */\r\n    function rejectPromise(uint256 ind) public payable {\r\n        require(unConfirmedProm[ind].P2.P==msg.sender);\r\n        unConfirmedProm[ind].status=false;\r\n        rejectedProm[ind]=unConfirmedProm[ind];\r\n        \r\n    }\r\n    \r\n    \r\n    \r\n    \r\n    \r\n    \r\n    \r\n/* this function is used to confirm promises and transfer them from\r\n   unConfirmedProm to ConfirmedProm mapping*/\r\n   \r\n    function confirmpromise(uint256 ind) internal {\r\n        require(msg.sender==unConfirmedProm[ind].P1.P || msg.sender==unConfirmedProm[ind].P2.P);\r\n        require(unConfirmedProm[ind].status==true);\r\n        ConfirmedProm[ind]=unConfirmedProm[ind];\r\n    }\r\n    \r\n    \r\n}\r\n",
  "sourcePath": "C:/Users/ikechi/Documents/ECS 265 - Distributed Database Systems - Mohammad Sadoghi/promise/contracts/Promise.sol",
  "compiler": {
    "name": "solc",
    "version": "0.5.16+commit.9c3226ce.Emscripten.clang"
  },
  "schemaVersion": "3.3.2",
  "updatedAt": "2020-11-22T02:51:40.483Z",
  "networkType": "ethereum",
  "devdoc": {
    "methods": {}
  },
  "userdoc": {
    "methods": {}
  }
}