{
  "contractName": "ImprovedPromise",
  "abi": [
    {
      "inputs": [],
      "payable": false,
      "stateMutability": "nonpayable",
      "type": "constructor"
    },
    {
      "anonymous": false,
      "inputs": [
        {
          "indexed": false,
          "internalType": "address",
          "name": "P2",
          "type": "address"
        },
        {
          "indexed": false,
          "internalType": "uint256",
          "name": "ind",
          "type": "uint256"
        },
        {
          "indexed": false,
          "internalType": "string",
          "name": "oath",
          "type": "string"
        }
      ],
      "name": "notify",
      "type": "event"
    },
    {
      "constant": true,
      "inputs": [],
      "name": "totPromise",
      "outputs": [
        {
          "internalType": "uint256",
          "name": "",
          "type": "uint256"
        }
      ],
      "payable": false,
      "stateMutability": "view",
      "type": "function"
    },
    {
      "constant": false,
      "inputs": [
        {
          "internalType": "address",
          "name": "builder",
          "type": "address"
        },
        {
          "internalType": "address",
          "name": "P2",
          "type": "address"
        },
        {
          "internalType": "string",
          "name": "_oath",
          "type": "string"
        }
      ],
      "name": "addPromise",
      "outputs": [
        {
          "internalType": "uint256",
          "name": "",
          "type": "uint256"
        }
      ],
      "payable": true,
      "stateMutability": "payable",
      "type": "function"
    },
    {
      "constant": true,
      "inputs": [
        {
          "internalType": "uint256",
          "name": "ind",
          "type": "uint256"
        }
      ],
      "name": "viewPromise",
      "outputs": [
        {
          "internalType": "string",
          "name": "",
          "type": "string"
        }
      ],
      "payable": false,
      "stateMutability": "view",
      "type": "function"
    },
    {
      "constant": false,
      "inputs": [
        {
          "internalType": "uint256",
          "name": "ind",
          "type": "uint256"
        }
      ],
      "name": "signPromise",
      "outputs": [],
      "payable": true,
      "stateMutability": "payable",
      "type": "function"
    },
    {
      "constant": false,
      "inputs": [
        {
          "internalType": "uint256",
          "name": "ind",
          "type": "uint256"
        }
      ],
      "name": "rejectPromise",
      "outputs": [],
      "payable": false,
      "stateMutability": "nonpayable",
      "type": "function"
    },
    {
      "constant": true,
      "inputs": [],
      "name": "viewConfirmed",
      "outputs": [
        {
          "internalType": "uint256[]",
          "name": "",
          "type": "uint256[]"
        }
      ],
      "payable": false,
      "stateMutability": "view",
      "type": "function"
    },
    {
      "constant": true,
      "inputs": [],
      "name": "viewRejected",
      "outputs": [
        {
          "internalType": "uint256[]",
          "name": "",
          "type": "uint256[]"
        }
      ],
      "payable": false,
      "stateMutability": "view",
      "type": "function"
    },
    {
      "constant": true,
      "inputs": [],
      "name": "viewUnConfirmed",
      "outputs": [
        {
          "internalType": "uint256[]",
          "name": "",
          "type": "uint256[]"
        }
      ],
      "payable": false,
      "stateMutability": "view",
      "type": "function"
    }
  ],
  "bytecode": "0x608060405234801561001057600080fd5b5033600160006101000a81548173ffffffffffffffffffffffffffffffffffffffff021916908373ffffffffffffffffffffffffffffffffffffffff160217905550611c22806100616000396000f3fe60806040526004361061007b5760003560e01c8063931564581161004e57806393156458146102a2578063b3fe498c1461030e578063badef1a71461033c578063ca6f3717146103675761007b565b80630a34974b1461008057806327afecf8146100ec5780635df9dc0c146101fb578063673a3d8d14610236575b600080fd5b34801561008c57600080fd5b5061009561041b565b6040518080602001828103825283818151815260200191508051906020019060200280838360005b838110156100d85780820151818401526020810190506100bd565b505050509050019250505060405180910390f35b6101e56004803603606081101561010257600080fd5b81019080803573ffffffffffffffffffffffffffffffffffffffff169060200190929190803573ffffffffffffffffffffffffffffffffffffffff1690602001909291908035906020019064010000000081111561015f57600080fd5b82018360208201111561017157600080fd5b8035906020019184600183028401116401000000008311171561019357600080fd5b91908080601f016020809104026020016040519081016040528093929190818152602001838380828437600081840152601f19601f8201169050808301925050505050505091929192905050506104b0565b6040518082815260200191505060405180910390f35b34801561020757600080fd5b506102346004803603602081101561021e57600080fd5b81019080803590602001909291905050506108e8565b005b34801561024257600080fd5b5061024b611018565b6040518080602001828103825283818151815260200191508051906020019060200280838360005b8381101561028e578082015181840152602081019050610273565b505050509050019250505060405180910390f35b3480156102ae57600080fd5b506102b76110ad565b6040518080602001828103825283818151815260200191508051906020019060200280838360005b838110156102fa5780820151818401526020810190506102df565b505050509050019250505060405180910390f35b61033a6004803603602081101561032457600080fd5b8101908080359060200190929190505050611142565b005b34801561034857600080fd5b50610351611648565b6040518082815260200191505060405180910390f35b34801561037357600080fd5b506103a06004803603602081101561038a57600080fd5b810190808035906020019092919050505061164e565b6040518080602001828103825283818151815260200191508051906020019080838360005b838110156103e05780820151818401526020810190506103c5565b50505050905090810190601f16801561040d5780820380516001836020036101000a031916815260200191505b509250505060405180910390f35b6060600660003373ffffffffffffffffffffffffffffffffffffffff1673ffffffffffffffffffffffffffffffffffffffff1681526020019081526020016000208054806020026020016040519081016040528092919081815260200182805480156104a657602002820191906000526020600020905b815481526020019060010190808311610492575b5050505050905090565b60008373ffffffffffffffffffffffffffffffffffffffff163373ffffffffffffffffffffffffffffffffffffffff16146104ea57600080fd5b600160009054906101000a900473ffffffffffffffffffffffffffffffffffffffff1673ffffffffffffffffffffffffffffffffffffffff166108fc349081150290604051600060405180830381858888f19350505050158015610552573d6000803e3d6000fd5b5060008081548092919060010191905055506040518060a00160405280600054815260200160405180604001604052808773ffffffffffffffffffffffffffffffffffffffff16815260200160011515815250815260200160405180604001604052808673ffffffffffffffffffffffffffffffffffffffff1681526020016000151581525081526020018381526020016000151581525060026000805481526020019081526020016000206000820151816000015560208201518160010160008201518160000160006101000a81548173ffffffffffffffffffffffffffffffffffffffff021916908373ffffffffffffffffffffffffffffffffffffffff16021790555060208201518160000160146101000a81548160ff021916908315150217905550505060408201518160020160008201518160000160006101000a81548173ffffffffffffffffffffffffffffffffffffffff021916908373ffffffffffffffffffffffffffffffffffffffff16021790555060208201518160000160146101000a81548160ff02191690831515021790555050506060820151816003019080519060200190610708929190611ac1565b5060808201518160040160006101000a81548160ff021916908315150217905550905050600760008573ffffffffffffffffffffffffffffffffffffffff1673ffffffffffffffffffffffffffffffffffffffff1681526020019081526020016000206000549080600181540180825580915050906001820390600052602060002001600090919290919091505550600760008473ffffffffffffffffffffffffffffffffffffffff1673ffffffffffffffffffffffffffffffffffffffff16815260200190815260200160002060005490806001815401808255809150509060018203906000526020600020016000909192909190915055507fe9d1c3d5696419f67869a620f57ae38fdfefed6b5a9276b2d807fd10fced99d78360005484604051808473ffffffffffffffffffffffffffffffffffffffff1673ffffffffffffffffffffffffffffffffffffffff16815260200183815260200180602001828103825283818151815260200191508051906020019080838360005b838110156108a0578082015181840152602081019050610885565b50505050905090810190601f1680156108cd5780820380516001836020036101000a031916815260200191505b5094505050505060405180910390a160005490509392505050565b6002600082815260200190815260200160002060020160000160009054906101000a900473ffffffffffffffffffffffffffffffffffffffff1673ffffffffffffffffffffffffffffffffffffffff163373ffffffffffffffffffffffffffffffffffffffff161461095957600080fd5b60006002600083815260200190815260200160002060040160006101000a81548160ff02191690831515021790555060026000828152602001908152602001600020600460008381526020019081526020016000206000820154816000015560018201816001016000820160009054906101000a900473ffffffffffffffffffffffffffffffffffffffff168160000160006101000a81548173ffffffffffffffffffffffffffffffffffffffff021916908373ffffffffffffffffffffffffffffffffffffffff1602179055506000820160149054906101000a900460ff168160000160146101000a81548160ff021916908315150217905550505060028201816002016000820160009054906101000a900473ffffffffffffffffffffffffffffffffffffffff168160000160006101000a81548173ffffffffffffffffffffffffffffffffffffffff021916908373ffffffffffffffffffffffffffffffffffffffff1602179055506000820160149054906101000a900460ff168160000160146101000a81548160ff021916908315150217905550505060038201816003019080546001816001161561010002031660029004610b1b929190611b41565b506004820160009054906101000a900460ff168160040160006101000a81548160ff021916908315150217905550905050600660003373ffffffffffffffffffffffffffffffffffffffff1673ffffffffffffffffffffffffffffffffffffffff168152602001908152602001600020819080600181540180825580915050906001820390600052602060002001600090919290919091505550600660006002600084815260200190815260200160002060010160000160009054906101000a900473ffffffffffffffffffffffffffffffffffffffff1673ffffffffffffffffffffffffffffffffffffffff1673ffffffffffffffffffffffffffffffffffffffff1681526020019081526020016000208190806001815401808255809150509060018203906000526020600020016000909192909190915055507fe9d1c3d5696419f67869a620f57ae38fdfefed6b5a9276b2d807fd10fced99d7338260026000858152602001908152602001600020600301604051808473ffffffffffffffffffffffffffffffffffffffff1673ffffffffffffffffffffffffffffffffffffffff16815260200183815260200180602001828103825283818154600181600116156101000203166002900481526020019150805460018160011615610100020316600290048015610d515780601f10610d2657610100808354040283529160200191610d51565b820191906000526020600020905b815481529060010190602001808311610d3457829003601f168201915b505094505050505060405180910390a16060600760003373ffffffffffffffffffffffffffffffffffffffff1673ffffffffffffffffffffffffffffffffffffffff168152602001908152602001600020805480602002602001604051908101604052809291908181526020018280548015610dec57602002820191906000526020600020905b815481526020019060010190808311610dd8575b5050505050905060005b8151811015610e805782828281518110610e0c57fe5b60200260200101511415610e7357600760003373ffffffffffffffffffffffffffffffffffffffff1673ffffffffffffffffffffffffffffffffffffffff1681526020019081526020016000208181548110610e6457fe5b90600052602060002001600090555b8080600101915050610df6565b506060600760006002600086815260200190815260200160002060010160000160009054906101000a900473ffffffffffffffffffffffffffffffffffffffff1673ffffffffffffffffffffffffffffffffffffffff1673ffffffffffffffffffffffffffffffffffffffff168152602001908152602001600020805480602002602001604051908101604052809291908181526020018280548015610f4557602002820191906000526020600020905b815481526020019060010190808311610f31575b5050505050905060005b81518110156110125783828281518110610f6557fe5b6020026020010151141561100557600760006002600087815260200190815260200160002060010160000160009054906101000a900473ffffffffffffffffffffffffffffffffffffffff1673ffffffffffffffffffffffffffffffffffffffff1673ffffffffffffffffffffffffffffffffffffffff1681526020019081526020016000208181548110610ff657fe5b90600052602060002001600090555b8080600101915050610f4f565b50505050565b6060600560003373ffffffffffffffffffffffffffffffffffffffff1673ffffffffffffffffffffffffffffffffffffffff1681526020019081526020016000208054806020026020016040519081016040528092919081815260200182805480156110a357602002820191906000526020600020905b81548152602001906001019080831161108f575b5050505050905090565b6060600760003373ffffffffffffffffffffffffffffffffffffffff1673ffffffffffffffffffffffffffffffffffffffff16815260200190815260200160002080548060200260200160405190810160405280929190818152602001828054801561113857602002820191906000526020600020905b815481526020019060010190808311611124575b5050505050905090565b6002600082815260200190815260200160002060020160000160009054906101000a900473ffffffffffffffffffffffffffffffffffffffff1673ffffffffffffffffffffffffffffffffffffffff163373ffffffffffffffffffffffffffffffffffffffff16146111b357600080fd5b60016002600083815260200190815260200160002060020160000160146101000a81548160ff02191690831515021790555060016002600083815260200190815260200160002060040160006101000a81548160ff02191690831515021790555061121d816117e6565b600160009054906101000a900473ffffffffffffffffffffffffffffffffffffffff1673ffffffffffffffffffffffffffffffffffffffff166108fc349081150290604051600060405180830381858888f19350505050158015611285573d6000803e3d6000fd5b50600560003373ffffffffffffffffffffffffffffffffffffffff1673ffffffffffffffffffffffffffffffffffffffff168152602001908152602001600020819080600181540180825580915050906001820390600052602060002001600090919290919091505550600560006002600084815260200190815260200160002060010160000160009054906101000a900473ffffffffffffffffffffffffffffffffffffffff1673ffffffffffffffffffffffffffffffffffffffff1673ffffffffffffffffffffffffffffffffffffffff1681526020019081526020016000208190806001815401808255809150509060018203906000526020600020016000909192909190915055506060600760003373ffffffffffffffffffffffffffffffffffffffff1673ffffffffffffffffffffffffffffffffffffffff16815260200190815260200160002080548060200260200160405190810160405280929190818152602001828054801561141c57602002820191906000526020600020905b815481526020019060010190808311611408575b5050505050905060005b81518110156114b0578282828151811061143c57fe5b602002602001015114156114a357600760003373ffffffffffffffffffffffffffffffffffffffff1673ffffffffffffffffffffffffffffffffffffffff168152602001908152602001600020818154811061149457fe5b90600052602060002001600090555b8080600101915050611426565b506060600760006002600086815260200190815260200160002060010160000160009054906101000a900473ffffffffffffffffffffffffffffffffffffffff1673ffffffffffffffffffffffffffffffffffffffff1673ffffffffffffffffffffffffffffffffffffffff16815260200190815260200160002080548060200260200160405190810160405280929190818152602001828054801561157557602002820191906000526020600020905b815481526020019060010190808311611561575b5050505050905060005b8151811015611642578382828151811061159557fe5b6020026020010151141561163557600760006002600087815260200190815260200160002060010160000160009054906101000a900473ffffffffffffffffffffffffffffffffffffffff1673ffffffffffffffffffffffffffffffffffffffff1673ffffffffffffffffffffffffffffffffffffffff168152602001908152602001600020818154811061162657fe5b90600052602060002001600090555b808060010191505061157f565b50505050565b60005481565b60606002600083815260200190815260200160002060010160000160009054906101000a900473ffffffffffffffffffffffffffffffffffffffff1673ffffffffffffffffffffffffffffffffffffffff163373ffffffffffffffffffffffffffffffffffffffff16148061172757506002600083815260200190815260200160002060020160000160009054906101000a900473ffffffffffffffffffffffffffffffffffffffff1673ffffffffffffffffffffffffffffffffffffffff163373ffffffffffffffffffffffffffffffffffffffff16145b61173057600080fd5b600260008381526020019081526020016000206003018054600181600116156101000203166002900480601f0160208091040260200160405190810160405280929190818152602001828054600181600116156101000203166002900480156117da5780601f106117af576101008083540402835291602001916117da565b820191906000526020600020905b8154815290600101906020018083116117bd57829003601f168201915b50505050509050919050565b6002600082815260200190815260200160002060010160000160009054906101000a900473ffffffffffffffffffffffffffffffffffffffff1673ffffffffffffffffffffffffffffffffffffffff163373ffffffffffffffffffffffffffffffffffffffff1614806118bd57506002600082815260200190815260200160002060020160000160009054906101000a900473ffffffffffffffffffffffffffffffffffffffff1673ffffffffffffffffffffffffffffffffffffffff163373ffffffffffffffffffffffffffffffffffffffff16145b6118c657600080fd5b600115156002600083815260200190815260200160002060040160009054906101000a900460ff161515146118fa57600080fd5b60026000828152602001908152602001600020600360008381526020019081526020016000206000820154816000015560018201816001016000820160009054906101000a900473ffffffffffffffffffffffffffffffffffffffff168160000160006101000a81548173ffffffffffffffffffffffffffffffffffffffff021916908373ffffffffffffffffffffffffffffffffffffffff1602179055506000820160149054906101000a900460ff168160000160146101000a81548160ff021916908315150217905550505060028201816002016000820160009054906101000a900473ffffffffffffffffffffffffffffffffffffffff168160000160006101000a81548173ffffffffffffffffffffffffffffffffffffffff021916908373ffffffffffffffffffffffffffffffffffffffff1602179055506000820160149054906101000a900460ff168160000160146101000a81548160ff021916908315150217905550505060038201816003019080546001816001161561010002031660029004611a8d929190611b41565b506004820160009054906101000a900460ff168160040160006101000a81548160ff02191690831515021790555090505050565b828054600181600116156101000203166002900490600052602060002090601f016020900481019282601f10611b0257805160ff1916838001178555611b30565b82800160010185558215611b30579182015b82811115611b2f578251825591602001919060010190611b14565b5b509050611b3d9190611bc8565b5090565b828054600181600116156101000203166002900490600052602060002090601f016020900481019282601f10611b7a5780548555611bb7565b82800160010185558215611bb757600052602060002091601f016020900482015b82811115611bb6578254825591600101919060010190611b9b565b5b509050611bc49190611bc8565b5090565b611bea91905b80821115611be6576000816000905550600101611bce565b5090565b9056fea265627a7a72315820ccf50e65e7e5bd867c9cc29fcbb7df6d41afcc76d82360fa22fb5bc77411efbe64736f6c63430005100032",
  "source": "//pragma solidity ^0.5.1;\npragma solidity >=0.4.22 <0.8.0;\n\n\ncontract ImprovedPromise{\n    uint256 public totPromise;//to index the promises\n    address payable manager;\n    mapping(uint256=>Prom) unConfirmedProm;         // to hold unconfirmed promises initially before they are signed by the participating parties.\n    mapping(uint256=>Prom) ConfirmedProm;           // to hold confirmed promises.\n    mapping(uint256=>Prom) rejectedProm;     // to hold rejected promises i.e promises rejected by any one party.\n    mapping(address=>uint256[]) Confirmed;   //Confirmed promises per user address\n    mapping(address=>uint256[]) Rejected;    //rejected promises per user address\n    mapping(address=>uint256[]) unConfirmed; //unConfirmed promises per user\n      \n    \n    constructor() public {\n        manager=msg.sender;\n    }\n    \n    \n    \n    \n    modifier isManager(){\n        require(msg.sender==manager);\n        _;\n    }\n    \n    \n    \n    /* this event is to notify the other participating party of the promise being created*/\n    event notify(\n        address P2,\n        uint256 ind,\n        string oath\n        );\n    \n    \n    \n    \n    /* a struct that holds the address and the boolean variable annotating that parties commitment status*/\n    struct partyStatus{  \n        address P;\n        bool commitment;\n    }\n    \n    \n    \n    \n    /*a structure holding our promise and the parties involved and their commitment towards the promise*/\n    struct Prom{\n        uint256 promIndex;\n        partyStatus P1;\n        partyStatus P2;\n        string oath;\n        bool status;\n        \n    }\n    \n   \n   \n   \n   \n    /*this function is used by one of the parties called a builder to create the unConfirmedPrompromise,\n    the address of the second party and the oath are also passed as parameters.*/\n    /* no malicious builder would want to call this function because this function takes in ehters and passes them to the manager.*/\n     \n    function addPromise(address builder,address P2,string memory _oath) public payable returns(uint256){\n        require(msg.sender==builder);\n        //require(msg.value==2 e);\n        manager.transfer(msg.value);        /*ethers are passed to the manager,,,calling addPromise function would cost the builder*/\n        \n        totPromise++;\n\n        unConfirmedProm[totPromise]=Prom(totPromise,partyStatus(builder,true),partyStatus(P2,false), _oath,false);\n        \n        unConfirmed[builder].push(totPromise); // pushing the promise index into the unconfirmed  mapping keyed by the address.\n        unConfirmed[P2].push(totPromise);\n        \n        \n        emit notify(P2,totPromise,_oath);   /* the event is emitted,,,, the other part gets to know about the promoise being created \n                                            by its name as one of the involved parties*/\n        return totPromise;\n        \n    }\n    \n    \n    \n   \n   \n    /*this function is used by the involved parties to view the promise */\n    \n    function viewPromise(uint256 ind) public view returns(string memory){\n        require(msg.sender==unConfirmedProm[ind].P1.P || msg.sender==unConfirmedProm[ind].P2.P);\n        return unConfirmedProm[ind].oath;\n        \n        \n        \n        \n    }\n    \n    \n    \n    \n    \n    /* this function is used by the other party to sign the promise and hence \n    confirms the promise*/\n    function signPromise(uint256 ind) public payable {\n        require(msg.sender==unConfirmedProm[ind].P2.P);\n        //require(msg.value==2 ethers);\n        unConfirmedProm[ind].P2.commitment=true;\n        unConfirmedProm[ind].status=true;\n        confirmpromise(ind);\n        manager.transfer(msg.value);\n        \n        Confirmed[msg.sender].push(ind);                //adding the promise to the Confirmed list of promises\n        Confirmed[unConfirmedProm[ind].P1.P].push(ind); //adding the promise to the Confirmed list of promises\n        \n        \n        // deleting the entries from the unConfirmed mapping once the promise gets signed.\n        uint256[] memory l;\n        l=unConfirmed[msg.sender];\n        for(uint i;i<l.length;i++){\n            if (l[i]==ind){\n                delete unConfirmed[msg.sender][i];\n            }\n        }\n        \n        uint256[] memory l1;\n        l1=unConfirmed[unConfirmedProm[ind].P1.P];\n        for(uint i;i<l1.length;i++){\n            if (l1[i]==ind){\n                delete unConfirmed[unConfirmedProm[ind].P1.P][i];\n            }\n        }\n        \n    }\n    \n    \n    \n    \n    \n    \n    /*this function is used by the non-builder party to reject the promise. \n    The promise after being rejected is added to the rejectPromise mapping */\n    function rejectPromise(uint256 ind) public  {\n        require(msg.sender==unConfirmedProm[ind].P2.P);\n        unConfirmedProm[ind].status=false;\n        rejectedProm[ind]=unConfirmedProm[ind];\n        Rejected[msg.sender].push(ind);                 // insert the rejected promise into the rejected mapping\n        Rejected[unConfirmedProm[ind].P1.P].push(ind);  // insert the rejected promise into the rejected mapping\n        emit notify(msg.sender,ind,unConfirmedProm[ind].oath);\n        \n        uint256[] memory l;                    // deleting the promise from unConfirmed mapping.\n        l=unConfirmed[msg.sender];\n        for(uint i;i<l.length;i++){\n            if (l[i]==ind){\n                delete unConfirmed[msg.sender][i];\n            }\n        }\n        \n        uint256[] memory l1;\n        l1=unConfirmed[unConfirmedProm[ind].P1.P];\n        for(uint i;i<l1.length;i++){\n            if (l1[i]==ind){\n                delete unConfirmed[unConfirmedProm[ind].P1.P][i];\n            }\n        }\n        \n    }\n    \n    \n    \n    \n    \n    \n    \n/* this function is used to confirm promises and transfer them from\n   unConfirmedProm to ConfirmedProm mapping*/\n   \n    function confirmpromise(uint256 ind) internal {\n        require(msg.sender==unConfirmedProm[ind].P1.P || msg.sender==unConfirmedProm[ind].P2.P);\n        require(unConfirmedProm[ind].status==true);\n        ConfirmedProm[ind]=unConfirmedProm[ind];\n        \n    }\n    \n    \n    \n    \n    \n/* this function would be used to view the Confirmed Promises by their owner. */ \n\n    function viewConfirmed() public view returns(uint256[] memory){\n       \n       return Confirmed[msg.sender];\n        \n        \n    }\n    \n    \n    \n    \n    \n    \n    \n/* this function would be used to view the Confirmed Promises by their owner. */ \n    \n    function viewRejected() public view returns(uint256[] memory){\n       \n        return Rejected[msg.sender];\n        \n        \n    }\n    \n    \n    \n    function viewUnConfirmed() public view returns(uint256[] memory){\n       \n        return unConfirmed[msg.sender];\n        \n        \n    }\n    \n    \n    \n    \n}\n",
  "sourcePath": "/Users/Alicia/ECS265/Promise_WebApp/promise/contracts/improvedPromise.sol",
  "compiler": {
    "name": "solc",
    "version": "0.5.16+commit.9c3226ce.Emscripten.clang"
  },
  "schemaVersion": "3.3.2",
  "updatedAt": "2020-12-07T23:39:30.856Z",
  "devdoc": {
    "methods": {}
  },
  "userdoc": {
    "methods": {}
  }
}