{
  "contractName": "Promise",
  "abi": [
    {
      "inputs": [],
      "payable": false,
      "stateMutability": "nonpayable",
      "type": "constructor"
    },
    {
      "anonymous": false,
      "inputs": [
        {
          "indexed": false,
          "internalType": "address",
          "name": "P2",
          "type": "address"
        },
        {
          "indexed": false,
          "internalType": "uint256",
          "name": "ind",
          "type": "uint256"
        },
        {
          "indexed": false,
          "internalType": "bytes32",
          "name": "oath",
          "type": "bytes32"
        }
      ],
      "name": "notify",
      "type": "event"
    },
    {
      "constant": true,
      "inputs": [
        {
          "internalType": "uint256",
          "name": "",
          "type": "uint256"
        }
      ],
      "name": "pendingProm",
      "outputs": [
        {
          "internalType": "bytes32",
          "name": "",
          "type": "bytes32"
        }
      ],
      "payable": false,
      "stateMutability": "view",
      "type": "function"
    },
    {
      "constant": true,
      "inputs": [],
      "name": "totPromise",
      "outputs": [
        {
          "internalType": "uint256",
          "name": "",
          "type": "uint256"
        }
      ],
      "payable": false,
      "stateMutability": "view",
      "type": "function"
    },
    {
      "constant": false,
      "inputs": [
        {
          "internalType": "address",
          "name": "builder",
          "type": "address"
        },
        {
          "internalType": "address",
          "name": "P2",
          "type": "address"
        },
        {
          "internalType": "bytes32",
          "name": "_oath",
          "type": "bytes32"
        }
      ],
      "name": "addPromise",
      "outputs": [
        {
          "internalType": "uint256",
          "name": "",
          "type": "uint256"
        }
      ],
      "payable": true,
      "stateMutability": "payable",
      "type": "function"
    },
    {
      "constant": true,
      "inputs": [],
      "name": "viewPromise",
      "outputs": [
        {
          "internalType": "bytes32[]",
          "name": "",
          "type": "bytes32[]"
        }
      ],
      "payable": false,
      "stateMutability": "view",
      "type": "function"
    },
    {
      "constant": false,
      "inputs": [
        {
          "internalType": "uint256",
          "name": "ind",
          "type": "uint256"
        }
      ],
      "name": "signPromise",
      "outputs": [],
      "payable": true,
      "stateMutability": "payable",
      "type": "function"
    },
    {
      "constant": false,
      "inputs": [
        {
          "internalType": "uint256",
          "name": "ind",
          "type": "uint256"
        }
      ],
      "name": "rejectPromise",
      "outputs": [],
      "payable": false,
      "stateMutability": "nonpayable",
      "type": "function"
    },
    {
      "constant": true,
      "inputs": [],
      "name": "viewConfirmed",
      "outputs": [
        {
          "internalType": "uint256[]",
          "name": "",
          "type": "uint256[]"
        }
      ],
      "payable": false,
      "stateMutability": "view",
      "type": "function"
    },
    {
      "constant": true,
      "inputs": [],
      "name": "viewRejected",
      "outputs": [
        {
          "internalType": "uint256[]",
          "name": "",
          "type": "uint256[]"
        }
      ],
      "payable": false,
      "stateMutability": "view",
      "type": "function"
    },
    {
      "constant": true,
      "inputs": [],
      "name": "viewUnConfirmed",
      "outputs": [
        {
          "internalType": "uint256[]",
          "name": "",
          "type": "uint256[]"
        }
      ],
      "payable": false,
      "stateMutability": "view",
      "type": "function"
    }
  ],
  "bytecode": "0x608060405234801561001057600080fd5b5033600160006101000a81548173ffffffffffffffffffffffffffffffffffffffff021916908373ffffffffffffffffffffffffffffffffffffffff160217905550611853806100616000396000f3fe6080604052600436106100865760003560e01c806372179ec41161005957806372179ec414610220578063931564581461026f5780639d994522146102db578063b3fe498c14610347578063badef1a71461037557610086565b806302de50a01461008b5780630a34974b1461010d5780635df9dc0c14610179578063673a3d8d146101b4575b600080fd5b6100f7600480360360608110156100a157600080fd5b81019080803573ffffffffffffffffffffffffffffffffffffffff169060200190929190803573ffffffffffffffffffffffffffffffffffffffff169060200190929190803590602001909291905050506103a0565b6040518082815260200191505060405180910390f35b34801561011957600080fd5b5061012261078c565b6040518080602001828103825283818151815260200191508051906020019060200280838360005b8381101561016557808201518184015260208101905061014a565b505050509050019250505060405180910390f35b34801561018557600080fd5b506101b26004803603602081101561019c57600080fd5b8101908080359060200190929190505050610821565b005b3480156101c057600080fd5b506101c9610eb2565b6040518080602001828103825283818151815260200191508051906020019060200280838360005b8381101561020c5780820151818401526020810190506101f1565b505050509050019250505060405180910390f35b34801561022c57600080fd5b506102596004803603602081101561024357600080fd5b8101908080359060200190929190505050610f47565b6040518082815260200191505060405180910390f35b34801561027b57600080fd5b50610284610f68565b6040518080602001828103825283818151815260200191508051906020019060200280838360005b838110156102c75780820151818401526020810190506102ac565b505050509050019250505060405180910390f35b3480156102e757600080fd5b506102f0610ffd565b6040518080602001828103825283818151815260200191508051906020019060200280838360005b83811015610333578082015181840152602081019050610318565b505050509050019250505060405180910390f35b6103736004803603602081101561035d57600080fd5b8101908080359060200190929190505050611055565b005b34801561038157600080fd5b5061038a61155b565b6040518082815260200191505060405180910390f35b60008373ffffffffffffffffffffffffffffffffffffffff163373ffffffffffffffffffffffffffffffffffffffff16146103da57600080fd5b600160009054906101000a900473ffffffffffffffffffffffffffffffffffffffff1673ffffffffffffffffffffffffffffffffffffffff166108fc349081150290604051600060405180830381858888f19350505050158015610442573d6000803e3d6000fd5b50600080815480929190600101919050555060088290806001815401808255809150509060018203906000526020600020016000909192909190915055506040518060a00160405280600054815260200160405180604001604052808773ffffffffffffffffffffffffffffffffffffffff16815260200160011515815250815260200160405180604001604052808673ffffffffffffffffffffffffffffffffffffffff1681526020016000151581525081526020018381526020016000151581525060026000805481526020019081526020016000206000820151816000015560208201518160010160008201518160000160006101000a81548173ffffffffffffffffffffffffffffffffffffffff021916908373ffffffffffffffffffffffffffffffffffffffff16021790555060208201518160000160146101000a81548160ff021916908315150217905550505060408201518160020160008201518160000160006101000a81548173ffffffffffffffffffffffffffffffffffffffff021916908373ffffffffffffffffffffffffffffffffffffffff16021790555060208201518160000160146101000a81548160ff02191690831515021790555050506060820151816003015560808201518160040160006101000a81548160ff021916908315150217905550905050600760008573ffffffffffffffffffffffffffffffffffffffff1673ffffffffffffffffffffffffffffffffffffffff1681526020019081526020016000206000549080600181540180825580915050906001820390600052602060002001600090919290919091505550600760008473ffffffffffffffffffffffffffffffffffffffff1673ffffffffffffffffffffffffffffffffffffffff16815260200190815260200160002060005490806001815401808255809150509060018203906000526020600020016000909192909190915055507f7b50333f05b7bbf142cf0cc55459612298ad279f31f63ae374b8574afdcf6a288360005484604051808473ffffffffffffffffffffffffffffffffffffffff1673ffffffffffffffffffffffffffffffffffffffff168152602001838152602001828152602001935050505060405180910390a160005490509392505050565b6060600660003373ffffffffffffffffffffffffffffffffffffffff1673ffffffffffffffffffffffffffffffffffffffff16815260200190815260200160002080548060200260200160405190810160405280929190818152602001828054801561081757602002820191906000526020600020905b815481526020019060010190808311610803575b5050505050905090565b6002600082815260200190815260200160002060020160000160009054906101000a900473ffffffffffffffffffffffffffffffffffffffff1673ffffffffffffffffffffffffffffffffffffffff163373ffffffffffffffffffffffffffffffffffffffff161461089257600080fd5b60006002600083815260200190815260200160002060040160006101000a81548160ff02191690831515021790555060026000828152602001908152602001600020600460008381526020019081526020016000206000820154816000015560018201816001016000820160009054906101000a900473ffffffffffffffffffffffffffffffffffffffff168160000160006101000a81548173ffffffffffffffffffffffffffffffffffffffff021916908373ffffffffffffffffffffffffffffffffffffffff1602179055506000820160149054906101000a900460ff168160000160146101000a81548160ff021916908315150217905550505060028201816002016000820160009054906101000a900473ffffffffffffffffffffffffffffffffffffffff168160000160006101000a81548173ffffffffffffffffffffffffffffffffffffffff021916908373ffffffffffffffffffffffffffffffffffffffff1602179055506000820160149054906101000a900460ff168160000160146101000a81548160ff0219169083151502179055505050600382015481600301556004820160009054906101000a900460ff168160040160006101000a81548160ff021916908315150217905550905050600660003373ffffffffffffffffffffffffffffffffffffffff1673ffffffffffffffffffffffffffffffffffffffff168152602001908152602001600020819080600181540180825580915050906001820390600052602060002001600090919290919091505550600660006002600084815260200190815260200160002060010160000160009054906101000a900473ffffffffffffffffffffffffffffffffffffffff1673ffffffffffffffffffffffffffffffffffffffff1673ffffffffffffffffffffffffffffffffffffffff1681526020019081526020016000208190806001815401808255809150509060018203906000526020600020016000909192909190915055507f7b50333f05b7bbf142cf0cc55459612298ad279f31f63ae374b8574afdcf6a2833826002600085815260200190815260200160002060030154604051808473ffffffffffffffffffffffffffffffffffffffff1673ffffffffffffffffffffffffffffffffffffffff168152602001838152602001828152602001935050505060405180910390a16060600760003373ffffffffffffffffffffffffffffffffffffffff1673ffffffffffffffffffffffffffffffffffffffff168152602001908152602001600020805480602002602001604051908101604052809291908181526020018280548015610c8657602002820191906000526020600020905b815481526020019060010190808311610c72575b5050505050905060005b8151811015610d1a5782828281518110610ca657fe5b60200260200101511415610d0d57600760003373ffffffffffffffffffffffffffffffffffffffff1673ffffffffffffffffffffffffffffffffffffffff1681526020019081526020016000208181548110610cfe57fe5b90600052602060002001600090555b8080600101915050610c90565b506060600760006002600086815260200190815260200160002060010160000160009054906101000a900473ffffffffffffffffffffffffffffffffffffffff1673ffffffffffffffffffffffffffffffffffffffff1673ffffffffffffffffffffffffffffffffffffffff168152602001908152602001600020805480602002602001604051908101604052809291908181526020018280548015610ddf57602002820191906000526020600020905b815481526020019060010190808311610dcb575b5050505050905060005b8151811015610eac5783828281518110610dff57fe5b60200260200101511415610e9f57600760006002600087815260200190815260200160002060010160000160009054906101000a900473ffffffffffffffffffffffffffffffffffffffff1673ffffffffffffffffffffffffffffffffffffffff1673ffffffffffffffffffffffffffffffffffffffff1681526020019081526020016000208181548110610e9057fe5b90600052602060002001600090555b8080600101915050610de9565b50505050565b6060600560003373ffffffffffffffffffffffffffffffffffffffff1673ffffffffffffffffffffffffffffffffffffffff168152602001908152602001600020805480602002602001604051908101604052809291908181526020018280548015610f3d57602002820191906000526020600020905b815481526020019060010190808311610f29575b5050505050905090565b60088181548110610f5457fe5b906000526020600020016000915090505481565b6060600760003373ffffffffffffffffffffffffffffffffffffffff1673ffffffffffffffffffffffffffffffffffffffff168152602001908152602001600020805480602002602001604051908101604052809291908181526020018280548015610ff357602002820191906000526020600020905b815481526020019060010190808311610fdf575b5050505050905090565b6060600880548060200260200160405190810160405280929190818152602001828054801561104b57602002820191906000526020600020905b815481526020019060010190808311611037575b5050505050905090565b6002600082815260200190815260200160002060020160000160009054906101000a900473ffffffffffffffffffffffffffffffffffffffff1673ffffffffffffffffffffffffffffffffffffffff163373ffffffffffffffffffffffffffffffffffffffff16146110c657600080fd5b60016002600083815260200190815260200160002060020160000160146101000a81548160ff02191690831515021790555060016002600083815260200190815260200160002060040160006101000a81548160ff02191690831515021790555061113081611561565b600160009054906101000a900473ffffffffffffffffffffffffffffffffffffffff1673ffffffffffffffffffffffffffffffffffffffff166108fc349081150290604051600060405180830381858888f19350505050158015611198573d6000803e3d6000fd5b50600560003373ffffffffffffffffffffffffffffffffffffffff1673ffffffffffffffffffffffffffffffffffffffff168152602001908152602001600020819080600181540180825580915050906001820390600052602060002001600090919290919091505550600560006002600084815260200190815260200160002060010160000160009054906101000a900473ffffffffffffffffffffffffffffffffffffffff1673ffffffffffffffffffffffffffffffffffffffff1673ffffffffffffffffffffffffffffffffffffffff1681526020019081526020016000208190806001815401808255809150509060018203906000526020600020016000909192909190915055506060600760003373ffffffffffffffffffffffffffffffffffffffff1673ffffffffffffffffffffffffffffffffffffffff16815260200190815260200160002080548060200260200160405190810160405280929190818152602001828054801561132f57602002820191906000526020600020905b81548152602001906001019080831161131b575b5050505050905060005b81518110156113c3578282828151811061134f57fe5b602002602001015114156113b657600760003373ffffffffffffffffffffffffffffffffffffffff1673ffffffffffffffffffffffffffffffffffffffff16815260200190815260200160002081815481106113a757fe5b90600052602060002001600090555b8080600101915050611339565b506060600760006002600086815260200190815260200160002060010160000160009054906101000a900473ffffffffffffffffffffffffffffffffffffffff1673ffffffffffffffffffffffffffffffffffffffff1673ffffffffffffffffffffffffffffffffffffffff16815260200190815260200160002080548060200260200160405190810160405280929190818152602001828054801561148857602002820191906000526020600020905b815481526020019060010190808311611474575b5050505050905060005b815181101561155557838282815181106114a857fe5b6020026020010151141561154857600760006002600087815260200190815260200160002060010160000160009054906101000a900473ffffffffffffffffffffffffffffffffffffffff1673ffffffffffffffffffffffffffffffffffffffff1673ffffffffffffffffffffffffffffffffffffffff168152602001908152602001600020818154811061153957fe5b90600052602060002001600090555b8080600101915050611492565b50505050565b60005481565b6002600082815260200190815260200160002060010160000160009054906101000a900473ffffffffffffffffffffffffffffffffffffffff1673ffffffffffffffffffffffffffffffffffffffff163373ffffffffffffffffffffffffffffffffffffffff16148061163857506002600082815260200190815260200160002060020160000160009054906101000a900473ffffffffffffffffffffffffffffffffffffffff1673ffffffffffffffffffffffffffffffffffffffff163373ffffffffffffffffffffffffffffffffffffffff16145b61164157600080fd5b600115156002600083815260200190815260200160002060040160009054906101000a900460ff1615151461167557600080fd5b60026000828152602001908152602001600020600360008381526020019081526020016000206000820154816000015560018201816001016000820160009054906101000a900473ffffffffffffffffffffffffffffffffffffffff168160000160006101000a81548173ffffffffffffffffffffffffffffffffffffffff021916908373ffffffffffffffffffffffffffffffffffffffff1602179055506000820160149054906101000a900460ff168160000160146101000a81548160ff021916908315150217905550505060028201816002016000820160009054906101000a900473ffffffffffffffffffffffffffffffffffffffff168160000160006101000a81548173ffffffffffffffffffffffffffffffffffffffff021916908373ffffffffffffffffffffffffffffffffffffffff1602179055506000820160149054906101000a900460ff168160000160146101000a81548160ff0219169083151502179055505050600382015481600301556004820160009054906101000a900460ff168160040160006101000a81548160ff0219169083151502179055509050505056fea265627a7a72315820cd8663ddec1478aa87d062fd7047f75b2d633eb08ba9f8d3c352a605d81c8c5d64736f6c63430005100032",
  "source": "// pragma solidity ^0.5.1;\r\npragma solidity >=0.4.22 <0.8.0;\r\n\r\ncontract Promise{\r\n    uint256 public totPromise;//to index the promises\r\n    address payable manager;\r\n    mapping(uint256=>Prom) unConfirmedProm;         // to hold unconfirmed promises initially before they are signed by the participating parties.\r\n    mapping(uint256=>Prom) ConfirmedProm;           // to hold confirmed promises.\r\n    mapping(uint256=>Prom) rejectedProm;     // to hold rejected promises i.e promises rejected by any one party.\r\n    mapping(address=>uint256[]) Confirmed;   //Confirmed promises per user address\r\n    mapping(address=>uint256[]) Rejected;    //rejected promises per user address\r\n    mapping(address=>uint256[]) unConfirmed; //unConfirmed promises per user\r\n\r\n    bytes32[] public pendingProm; // TEMPORARY\r\n      \r\n    constructor() public {\r\n        manager=msg.sender;\r\n    }\r\n    \r\n    modifier isManager(){\r\n        require(msg.sender==manager);\r\n        _;\r\n    }\r\n    \r\n    /* this event is to notify the other participating party of the promise being created*/\r\n    event notify(\r\n        address P2,\r\n        uint256 ind,\r\n        // string oath\r\n        bytes32 oath\r\n    );\r\n    \r\n    /* a struct that holds the address and the boolean variable annotating that parties commitment status*/\r\n    struct partyStatus{  \r\n        address P;\r\n        bool commitment;\r\n    }\r\n    \r\n    /*a structure holding our promise and the parties involved and their commitment towards the promise*/\r\n    struct Prom{\r\n        uint256 promIndex;\r\n        partyStatus P1;\r\n        partyStatus P2;\r\n        // string oath;\r\n        bytes32 oath;\r\n        bool status;\r\n        \r\n    }\r\n   \r\n    /*this function is used by one of the parties called a builder to create the unConfirmedPrompromise,\r\n    the address of the second party and the oath are also passed as parameters.*/\r\n    /* no malicious builder would want to call this function because this function takes in ehters and passes them to the manager.*/\r\n    function addPromise(address builder,address P2,bytes32 _oath) public payable returns(uint256){ \r\n    // function addPromise(address builder,address P2,string memory _oath) public payable returns(uint256){ \r\n        require(msg.sender==builder);\r\n        //require(msg.value==2 e);\r\n        manager.transfer(msg.value);        /*ethers are passed to the manager,,,calling addPromise function would cost the builder*/\r\n        \r\n        totPromise++;\r\n\r\n        pendingProm.push(_oath);\r\n\r\n        unConfirmedProm[totPromise]=Prom(totPromise,partyStatus(builder,true),partyStatus(P2,false), _oath,false);\r\n        \r\n        unConfirmed[builder].push(totPromise); // pushing the promise index into the unconfirmed  mapping keyed by the address.\r\n        unConfirmed[P2].push(totPromise);\r\n        \r\n        \r\n        emit notify(P2,totPromise,_oath);   /* the event is emitted,,,, the other part gets to know about the promoise being created \r\n                                               // by its name as one of the involved parties*/\r\n        return totPromise;\r\n        \r\n    }\r\n\r\n    /*this function is used by the involved parties to view the promise */\r\n    function viewPromise() public view returns(bytes32[] memory){ \r\n    // function viewPromise(uint256 ind) public view returns(string memory){ \r\n        // require(msg.sender==unConfirmedProm[ind].P1.P || msg.sender==unConfirmedProm[ind].P2.P);\r\n        // return unConfirmedProm[ind].oath;\r\n        return pendingProm;\r\n        \r\n    }\r\n    \r\n    /* this function is used by the other party to sign the promise and hence \r\n    confirms the promise*/\r\n    function signPromise(uint256 ind) public payable {\r\n        require(msg.sender==unConfirmedProm[ind].P2.P);\r\n        //require(msg.value==2 ethers);\r\n        unConfirmedProm[ind].P2.commitment=true;\r\n        unConfirmedProm[ind].status=true;\r\n        confirmpromise(ind);\r\n        manager.transfer(msg.value);\r\n        \r\n        Confirmed[msg.sender].push(ind);                //adding the promise to the Confirmed list of promises\r\n        Confirmed[unConfirmedProm[ind].P1.P].push(ind); //adding the promise to the Confirmed list of promises\r\n        \r\n        \r\n        // deleting the entries from the unConfirmed mapping once the promise gets signed.\r\n        uint256[] memory l;\r\n        l=unConfirmed[msg.sender];\r\n        for(uint i;i<l.length;i++){\r\n            if (l[i]==ind){\r\n                delete unConfirmed[msg.sender][i];\r\n            }\r\n        }\r\n        \r\n        uint256[] memory l1;\r\n        l1=unConfirmed[unConfirmedProm[ind].P1.P];\r\n        for(uint i;i<l1.length;i++){\r\n            if (l1[i]==ind){\r\n                delete unConfirmed[unConfirmedProm[ind].P1.P][i];\r\n            }\r\n        }\r\n    }\r\n    \r\n    /*this function is used by the non-builder party to reject the promise. \r\n    The promise after being rejected is added to the rejectPromise mapping */\r\n    function rejectPromise(uint256 ind) public  {\r\n        require(msg.sender==unConfirmedProm[ind].P2.P);\r\n        unConfirmedProm[ind].status=false;\r\n        rejectedProm[ind]=unConfirmedProm[ind];\r\n        Rejected[msg.sender].push(ind);                 // insert the rejected promise into the rejected mapping\r\n        Rejected[unConfirmedProm[ind].P1.P].push(ind);  // insert the rejected promise into the rejected mapping\r\n        emit notify(msg.sender,ind,unConfirmedProm[ind].oath);\r\n        \r\n        uint256[] memory l;                    // deleting the promise from unConfirmed mapping.\r\n        l=unConfirmed[msg.sender];\r\n        for(uint i;i<l.length;i++){\r\n            if (l[i]==ind){\r\n                delete unConfirmed[msg.sender][i];\r\n            }\r\n        }\r\n        \r\n        uint256[] memory l1;\r\n        l1=unConfirmed[unConfirmedProm[ind].P1.P];\r\n        for(uint i;i<l1.length;i++){\r\n            if (l1[i]==ind){\r\n                delete unConfirmed[unConfirmedProm[ind].P1.P][i];\r\n            }\r\n        }\r\n    }\r\n    \r\n    /* this function is used to confirm promises and transfer them from\r\n   unConfirmedProm to ConfirmedProm mapping*/\r\n    function confirmpromise(uint256 ind) internal {\r\n        require(msg.sender==unConfirmedProm[ind].P1.P || msg.sender==unConfirmedProm[ind].P2.P);\r\n        require(unConfirmedProm[ind].status==true);\r\n        ConfirmedProm[ind]=unConfirmedProm[ind];\r\n        \r\n    }\r\n\r\n    /* this function would be used to view the Confirmed Promises by their owner. */ \r\n    function viewConfirmed() public view returns(uint256[] memory){\r\n       \r\n       return Confirmed[msg.sender];\r\n        \r\n    }\r\n\r\n    /* this function would be used to view the Confirmed Promises by their owner. */ \r\n    function viewRejected() public view returns(uint256[] memory){\r\n       \r\n        return Rejected[msg.sender];\r\n        \r\n    }\r\n    \r\n    function viewUnConfirmed() public view returns(uint256[] memory){\r\n       \r\n        return unConfirmed[msg.sender];\r\n        \r\n    }\r\n    \r\n}",
  "sourcePath": "C:/Users/ikechi/Documents/ECS 265 - Distributed Database Systems - Mohammad Sadoghi/promise/contracts/Promise.sol",
  "compiler": {
    "name": "solc",
    "version": "0.5.16+commit.9c3226ce.Emscripten.clang"
  },
  "schemaVersion": "3.3.2",
  "updatedAt": "2020-12-11T05:30:25.267Z",
  "devdoc": {
    "methods": {}
  },
  "userdoc": {
    "methods": {}
  }
}