{
  "contractName": "Promise",
  "abi": [
    {
      "constant": true,
      "inputs": [],
      "name": "totPromise",
      "outputs": [
        {
          "name": "",
          "type": "uint256"
        }
      ],
      "payable": false,
      "stateMutability": "view",
      "type": "function",
      "signature": "0xbadef1a7"
    },
    {
      "inputs": [],
      "payable": false,
      "stateMutability": "nonpayable",
      "type": "constructor",
      "signature": "constructor"
    },
    {
      "anonymous": false,
      "inputs": [
        {
          "indexed": false,
          "name": "P2",
          "type": "address"
        },
        {
          "indexed": false,
          "name": "ind",
          "type": "uint256"
        },
        {
          "indexed": false,
          "name": "oath",
          "type": "string"
        }
      ],
      "name": "notify",
      "type": "event",
      "signature": "0xe9d1c3d5696419f67869a620f57ae38fdfefed6b5a9276b2d807fd10fced99d7"
    },
    {
      "constant": false,
      "inputs": [
        {
          "name": "builder",
          "type": "address"
        },
        {
          "name": "P2",
          "type": "address"
        },
        {
          "name": "_oath",
          "type": "string"
        }
      ],
      "name": "addPromise",
      "outputs": [],
      "payable": true,
      "stateMutability": "payable",
      "type": "function",
      "signature": "0x27afecf8"
    },
    {
      "constant": true,
      "inputs": [
        {
          "name": "ind",
          "type": "uint256"
        }
      ],
      "name": "viewPromise",
      "outputs": [
        {
          "name": "",
          "type": "string"
        }
      ],
      "payable": false,
      "stateMutability": "view",
      "type": "function",
      "signature": "0xca6f3717"
    },
    {
      "constant": false,
      "inputs": [
        {
          "name": "ind",
          "type": "uint256"
        }
      ],
      "name": "signPromise",
      "outputs": [],
      "payable": true,
      "stateMutability": "payable",
      "type": "function",
      "signature": "0xb3fe498c"
    },
    {
      "constant": false,
      "inputs": [
        {
          "name": "ind",
          "type": "uint256"
        }
      ],
      "name": "rejectPromise",
      "outputs": [],
      "payable": true,
      "stateMutability": "payable",
      "type": "function",
      "signature": "0x5df9dc0c"
    }
  ],
  "bytecode": "0x608060405234801561001057600080fd5b5033600160006101000a81548173ffffffffffffffffffffffffffffffffffffffff021916908373ffffffffffffffffffffffffffffffffffffffff1602179055506110c3806100616000396000f3fe60806040526004361061006d576000357c0100000000000000000000000000000000000000000000000000000000900463ffffffff16806327afecf8146100725780635df9dc0c1461016d578063b3fe498c1461019b578063badef1a7146101c9578063ca6f3717146101f4575b600080fd5b61016b6004803603606081101561008857600080fd5b81019080803573ffffffffffffffffffffffffffffffffffffffff169060200190929190803573ffffffffffffffffffffffffffffffffffffffff169060200190929190803590602001906401000000008111156100e557600080fd5b8201836020820111156100f757600080fd5b8035906020019184600183028401116401000000008311171561011957600080fd5b91908080601f016020809104026020016040519081016040528093929190818152602001838380828437600081840152601f19601f8201169050808301925050505050505091929192905050506102a8565b005b6101996004803603602081101561018357600080fd5b8101908080359060200190929190505050610604565b005b6101c7600480360360208110156101b157600080fd5b810190808035906020019092919050505061086d565b005b3480156101d557600080fd5b506101de6109b6565b6040518082815260200191505060405180910390f35b34801561020057600080fd5b5061022d6004803603602081101561021757600080fd5b81019080803590602001909291905050506109bc565b6040518080602001828103825283818151815260200191508051906020019080838360005b8381101561026d578082015181840152602081019050610252565b50505050905090810190601f16801561029a5780820380516001836020036101000a031916815260200191505b509250505060405180910390f35b8273ffffffffffffffffffffffffffffffffffffffff163373ffffffffffffffffffffffffffffffffffffffff161415156102e257600080fd5b600080815480929190600101919050555060a060405190810160405280600054815260200160408051908101604052808673ffffffffffffffffffffffffffffffffffffffff16815260200160011515815250815260200160408051908101604052808573ffffffffffffffffffffffffffffffffffffffff1681526020016000151581525081526020018281526020016000151581525060026000805481526020019081526020016000206000820151816000015560208201518160010160008201518160000160006101000a81548173ffffffffffffffffffffffffffffffffffffffff021916908373ffffffffffffffffffffffffffffffffffffffff16021790555060208201518160000160146101000a81548160ff021916908315150217905550505060408201518160020160008201518160000160006101000a81548173ffffffffffffffffffffffffffffffffffffffff021916908373ffffffffffffffffffffffffffffffffffffffff16021790555060208201518160000160146101000a81548160ff02191690831515021790555050506060820151816003019080519060200190610498929190610f6b565b5060808201518160040160006101000a81548160ff021916908315150217905550905050600160009054906101000a900473ffffffffffffffffffffffffffffffffffffffff1673ffffffffffffffffffffffffffffffffffffffff166108fc349081150290604051600060405180830381858888f19350505050158015610524573d6000803e3d6000fd5b507fe9d1c3d5696419f67869a620f57ae38fdfefed6b5a9276b2d807fd10fced99d78260005483604051808473ffffffffffffffffffffffffffffffffffffffff1673ffffffffffffffffffffffffffffffffffffffff16815260200183815260200180602001828103825283818151815260200191508051906020019080838360005b838110156105c35780820151818401526020810190506105a8565b50505050905090810190601f1680156105f05780820380516001836020036101000a031916815260200191505b5094505050505060405180910390a1505050565b3373ffffffffffffffffffffffffffffffffffffffff166002600083815260200190815260200160002060020160000160009054906101000a900473ffffffffffffffffffffffffffffffffffffffff1673ffffffffffffffffffffffffffffffffffffffff1614151561067757600080fd5b60006002600083815260200190815260200160002060040160006101000a81548160ff02191690831515021790555060026000828152602001908152602001600020600460008381526020019081526020016000206000820154816000015560018201816001016000820160009054906101000a900473ffffffffffffffffffffffffffffffffffffffff168160000160006101000a81548173ffffffffffffffffffffffffffffffffffffffff021916908373ffffffffffffffffffffffffffffffffffffffff1602179055506000820160149054906101000a900460ff168160000160146101000a81548160ff021916908315150217905550505060028201816002016000820160009054906101000a900473ffffffffffffffffffffffffffffffffffffffff168160000160006101000a81548173ffffffffffffffffffffffffffffffffffffffff021916908373ffffffffffffffffffffffffffffffffffffffff1602179055506000820160149054906101000a900460ff168160000160146101000a81548160ff021916908315150217905550505060038201816003019080546001816001161561010002031660029004610839929190610feb565b506004820160009054906101000a900460ff168160040160006101000a81548160ff02191690831515021790555090505050565b3373ffffffffffffffffffffffffffffffffffffffff166002600083815260200190815260200160002060020160000160009054906101000a900473ffffffffffffffffffffffffffffffffffffffff1673ffffffffffffffffffffffffffffffffffffffff161415156108e057600080fd5b60016002600083815260200190815260200160002060020160000160146101000a81548160ff02191690831515021790555060016002600083815260200190815260200160002060040160006101000a81548160ff02191690831515021790555061094a81610c8c565b600160009054906101000a900473ffffffffffffffffffffffffffffffffffffffff1673ffffffffffffffffffffffffffffffffffffffff166108fc349081150290604051600060405180830381858888f193505050501580156109b2573d6000803e3d6000fd5b5050565b60005481565b60606002600083815260200190815260200160002060020160000160009054906101000a900473ffffffffffffffffffffffffffffffffffffffff1673ffffffffffffffffffffffffffffffffffffffff163373ffffffffffffffffffffffffffffffffffffffff161480610a9557506002600083815260200190815260200160002060010160000160009054906101000a900473ffffffffffffffffffffffffffffffffffffffff1673ffffffffffffffffffffffffffffffffffffffff163373ffffffffffffffffffffffffffffffffffffffff16145b80610aed5750600160009054906101000a900473ffffffffffffffffffffffffffffffffffffffff1673ffffffffffffffffffffffffffffffffffffffff163373ffffffffffffffffffffffffffffffffffffffff16145b80610b5c57506003600083815260200190815260200160002060020160000160009054906101000a900473ffffffffffffffffffffffffffffffffffffffff1673ffffffffffffffffffffffffffffffffffffffff163373ffffffffffffffffffffffffffffffffffffffff16145b80610bcb57506003600083815260200190815260200160002060010160000160009054906101000a900473ffffffffffffffffffffffffffffffffffffffff1673ffffffffffffffffffffffffffffffffffffffff163373ffffffffffffffffffffffffffffffffffffffff16145b1515610bd657600080fd5b600260008381526020019081526020016000206003018054600181600116156101000203166002900480601f016020809104026020016040519081016040528092919081815260200182805460018160011615610100020316600290048015610c805780601f10610c5557610100808354040283529160200191610c80565b820191906000526020600020905b815481529060010190602001808311610c6357829003601f168201915b50505050509050919050565b6002600082815260200190815260200160002060010160000160009054906101000a900473ffffffffffffffffffffffffffffffffffffffff1673ffffffffffffffffffffffffffffffffffffffff163373ffffffffffffffffffffffffffffffffffffffff161480610d6357506002600082815260200190815260200160002060020160000160009054906101000a900473ffffffffffffffffffffffffffffffffffffffff1673ffffffffffffffffffffffffffffffffffffffff163373ffffffffffffffffffffffffffffffffffffffff16145b1515610d6e57600080fd5b600115156002600083815260200190815260200160002060040160009054906101000a900460ff161515141515610da457600080fd5b60026000828152602001908152602001600020600360008381526020019081526020016000206000820154816000015560018201816001016000820160009054906101000a900473ffffffffffffffffffffffffffffffffffffffff168160000160006101000a81548173ffffffffffffffffffffffffffffffffffffffff021916908373ffffffffffffffffffffffffffffffffffffffff1602179055506000820160149054906101000a900460ff168160000160146101000a81548160ff021916908315150217905550505060028201816002016000820160009054906101000a900473ffffffffffffffffffffffffffffffffffffffff168160000160006101000a81548173ffffffffffffffffffffffffffffffffffffffff021916908373ffffffffffffffffffffffffffffffffffffffff1602179055506000820160149054906101000a900460ff168160000160146101000a81548160ff021916908315150217905550505060038201816003019080546001816001161561010002031660029004610f37929190610feb565b506004820160009054906101000a900460ff168160040160006101000a81548160ff02191690831515021790555090505050565b828054600181600116156101000203166002900490600052602060002090601f016020900481019282601f10610fac57805160ff1916838001178555610fda565b82800160010185558215610fda579182015b82811115610fd9578251825591602001919060010190610fbe565b5b509050610fe79190611072565b5090565b828054600181600116156101000203166002900490600052602060002090601f016020900481019282601f106110245780548555611061565b8280016001018555821561106157600052602060002091601f016020900482015b82811115611060578254825591600101919060010190611045565b5b50905061106e9190611072565b5090565b61109491905b80821115611090576000816000905550600101611078565b5090565b9056fea165627a7a7230582092bf194fa98104268b2ba2012778e7a3ad16eed7e3418e6c413711f1f71fabf50029",
  "source": "//pragma solidity ^0.5.1;\npragma solidity >=0.4.22 <0.8.0;\n\ncontract Promise{\n    uint256 public totPromise;//to index the promises\n    address payable manager;\n    mapping(uint256=>Prom) unConfirmedProm;// to hold unconfirmed promises initially before they are signed by the participating parties.\n    mapping(uint256=>Prom) ConfirmedProm;// to hold confirmed promises.\n    mapping(uint256=>Prom) rejectedProm;// to hold rejected promises i.e promises rejected by any one party.\n    \n    \n    constructor() public {\n        manager=msg.sender;\n    }\n    \n    \n    modifier isManager(){\n        require(msg.sender==manager);\n        _;\n    }\n    \n    \n    \n    /* this event is to notify the other participating party of the promise being created*/\n    event notify(\n        address P2,\n        uint256 ind,\n        string oath\n        );\n    \n    \n    \n    \n    /* a struct that holds the address and the boolean variable annotating that parties commitment status*/\n    struct partyStatus{  \n        address P;\n        bool commitment;\n    }\n    \n    \n    \n    \n    /*a structure holding our promise and the parties involved and their commitment towards the promise*/\n    struct Prom{\n        uint256 promIndex;\n        partyStatus P1;\n        partyStatus P2;\n        string oath;\n        bool status;\n        \n    }\n    \n   \n   \n   \n   \n    /*this function is used by one of the parties called a builder to create the unConfirmedPrompromise,\n    the address of the second party and the oath are also passed as parameters.*/\n    /* no malicious builder would want to call this function because this function takes in ehters and passes them to the manager.*/\n     \n    function addPromise(address builder,address P2,string memory _oath) public payable {\n        require(msg.sender==builder);\n        totPromise++;\n\n        unConfirmedProm[totPromise]=Prom(totPromise,partyStatus(builder,true),partyStatus(P2,false), _oath,false);\n        \n        manager.transfer(msg.value);        /*ethers are passed to the manager,,,calling addPromise function would cost the builder*/\n        \n        emit notify(P2,totPromise,_oath);   /* the event is emitted,,,, the other part gets to know about the promoise being created \n                                            by its name as one of the involved parties*/\n        \n        \n    }\n    \n    \n    \n   \n   \n    /*this function is used by the involved parties to view the promise */\n    \n    function viewPromise(uint256 ind) public view returns(string memory){\n        require(msg.sender==unConfirmedProm[ind].P2.P || msg.sender==unConfirmedProm[ind].P1.P || msg.sender==manager||msg.sender==ConfirmedProm[ind].P2.P || msg.sender==ConfirmedProm[ind].P1.P);\n        return unConfirmedProm[ind].oath;\n        \n        \n        \n        \n    }\n    \n    \n    \n    \n    \n    /* this function is used by the other party to sign the promise and hence \n    confirms the promise*/\n    function signPromise(uint256 ind) public payable {\n        require(unConfirmedProm[ind].P2.P==msg.sender);\n        unConfirmedProm[ind].P2.commitment=true;\n        unConfirmedProm[ind].status=true;\n        confirmpromise(ind);\n        manager.transfer(msg.value);\n    }\n    \n    \n    \n    \n    \n    \n    /*this function is used by the non-builder party to reject the promise. \n    The promise after being rejected is added to the rejectPromise mapping */\n    function rejectPromise(uint256 ind) public payable {\n        require(unConfirmedProm[ind].P2.P==msg.sender);\n        unConfirmedProm[ind].status=false;\n        rejectedProm[ind]=unConfirmedProm[ind];\n        \n    }\n    \n    \n    \n    \n    \n    \n    \n/* this function is used to confirm promises and transfer them from\n   unConfirmedProm to ConfirmedProm mapping*/\n   \n    function confirmpromise(uint256 ind) internal {\n        require(msg.sender==unConfirmedProm[ind].P1.P || msg.sender==unConfirmedProm[ind].P2.P);\n        require(unConfirmedProm[ind].status==true);\n        ConfirmedProm[ind]=unConfirmedProm[ind];\n    }\n    \n    \n}\n",
  "sourcePath": "/Users/agnieszka/Github/promise/Nuamaan/contracts/Promise.sol",
  "compiler": {
    "name": "solc",
    "version": "0.5.0+commit.1d4f565a.Emscripten.clang"
  },
  "schemaVersion": "3.0.1",
  "updatedAt": "2020-11-13T18:25:09.341Z",
  "devdoc": {
    "methods": {}
  },
  "userdoc": {
    "methods": {}
  }
}