{
  "contractName": "SolidPromise",
  "abi": [
    {
      "inputs": [],
      "payable": false,
      "stateMutability": "nonpayable",
      "type": "constructor"
    },
    {
      "anonymous": false,
      "inputs": [
        {
          "indexed": false,
          "internalType": "address",
          "name": "recipientAccount",
          "type": "address"
        },
        {
          "indexed": false,
          "internalType": "uint256",
          "name": "promiseIndex",
          "type": "uint256"
        },
        {
          "indexed": false,
          "internalType": "string",
          "name": "oathTitle",
          "type": "string"
        },
        {
          "indexed": false,
          "internalType": "string",
          "name": "oath",
          "type": "string"
        }
      ],
      "name": "notify",
      "type": "event"
    },
    {
      "constant": true,
      "inputs": [
        {
          "internalType": "uint256",
          "name": "",
          "type": "uint256"
        }
      ],
      "name": "allPendingPromisesForUser",
      "outputs": [
        {
          "internalType": "string",
          "name": "",
          "type": "string"
        }
      ],
      "payable": false,
      "stateMutability": "view",
      "type": "function"
    },
    {
      "constant": true,
      "inputs": [
        {
          "internalType": "uint256",
          "name": "",
          "type": "uint256"
        }
      ],
      "name": "allRejectedPromisesForUser",
      "outputs": [
        {
          "internalType": "string",
          "name": "",
          "type": "string"
        }
      ],
      "payable": false,
      "stateMutability": "view",
      "type": "function"
    },
    {
      "constant": true,
      "inputs": [
        {
          "internalType": "uint256",
          "name": "",
          "type": "uint256"
        }
      ],
      "name": "allSignedPromisesForUser",
      "outputs": [
        {
          "internalType": "string",
          "name": "",
          "type": "string"
        }
      ],
      "payable": false,
      "stateMutability": "view",
      "type": "function"
    },
    {
      "constant": true,
      "inputs": [],
      "name": "totalPromiseCount",
      "outputs": [
        {
          "internalType": "uint256",
          "name": "",
          "type": "uint256"
        }
      ],
      "payable": false,
      "stateMutability": "view",
      "type": "function"
    },
    {
      "constant": false,
      "inputs": [
        {
          "internalType": "address",
          "name": "builder",
          "type": "address"
        },
        {
          "internalType": "address",
          "name": "recipient",
          "type": "address"
        },
        {
          "internalType": "string",
          "name": "_oathTitle",
          "type": "string"
        },
        {
          "internalType": "string",
          "name": "_oath",
          "type": "string"
        }
      ],
      "name": "addPromise",
      "outputs": [
        {
          "internalType": "uint256",
          "name": "",
          "type": "uint256"
        }
      ],
      "payable": true,
      "stateMutability": "payable",
      "type": "function"
    },
    {
      "constant": true,
      "inputs": [
        {
          "internalType": "uint256",
          "name": "index",
          "type": "uint256"
        }
      ],
      "name": "viewPromise",
      "outputs": [
        {
          "internalType": "string",
          "name": "",
          "type": "string"
        }
      ],
      "payable": false,
      "stateMutability": "view",
      "type": "function"
    },
    {
      "constant": true,
      "inputs": [
        {
          "internalType": "uint256",
          "name": "index",
          "type": "uint256"
        }
      ],
      "name": "viewPromiseTitle",
      "outputs": [
        {
          "internalType": "string",
          "name": "",
          "type": "string"
        }
      ],
      "payable": false,
      "stateMutability": "view",
      "type": "function"
    },
    {
      "constant": true,
      "inputs": [
        {
          "internalType": "uint256",
          "name": "index",
          "type": "uint256"
        }
      ],
      "name": "viewPromiseBuilderAddress",
      "outputs": [
        {
          "internalType": "string",
          "name": "",
          "type": "string"
        }
      ],
      "payable": false,
      "stateMutability": "view",
      "type": "function"
    },
    {
      "constant": true,
      "inputs": [
        {
          "internalType": "uint256",
          "name": "index",
          "type": "uint256"
        }
      ],
      "name": "viewPromiseRecipientAddress",
      "outputs": [
        {
          "internalType": "string",
          "name": "",
          "type": "string"
        }
      ],
      "payable": false,
      "stateMutability": "view",
      "type": "function"
    },
    {
      "constant": true,
      "inputs": [
        {
          "internalType": "uint256",
          "name": "index",
          "type": "uint256"
        }
      ],
      "name": "viewPromiseIndex",
      "outputs": [
        {
          "internalType": "uint256",
          "name": "",
          "type": "uint256"
        }
      ],
      "payable": false,
      "stateMutability": "view",
      "type": "function"
    },
    {
      "constant": false,
      "inputs": [
        {
          "internalType": "uint256",
          "name": "index",
          "type": "uint256"
        }
      ],
      "name": "signPromise",
      "outputs": [],
      "payable": true,
      "stateMutability": "payable",
      "type": "function"
    },
    {
      "constant": false,
      "inputs": [
        {
          "internalType": "uint256",
          "name": "index",
          "type": "uint256"
        }
      ],
      "name": "rejectPromise",
      "outputs": [],
      "payable": false,
      "stateMutability": "nonpayable",
      "type": "function"
    },
    {
      "constant": true,
      "inputs": [],
      "name": "viewSignedPromises",
      "outputs": [
        {
          "internalType": "uint256[]",
          "name": "",
          "type": "uint256[]"
        }
      ],
      "payable": false,
      "stateMutability": "view",
      "type": "function"
    },
    {
      "constant": true,
      "inputs": [],
      "name": "viewRejectedPromises",
      "outputs": [
        {
          "internalType": "uint256[]",
          "name": "",
          "type": "uint256[]"
        }
      ],
      "payable": false,
      "stateMutability": "view",
      "type": "function"
    },
    {
      "constant": true,
      "inputs": [],
      "name": "viewPendingPromises",
      "outputs": [
        {
          "internalType": "uint256[]",
          "name": "",
          "type": "uint256[]"
        }
      ],
      "payable": false,
      "stateMutability": "view",
      "type": "function"
    },
    {
      "constant": true,
      "inputs": [],
      "name": "viewAllPendingPromises",
      "outputs": [
        {
          "internalType": "string[]",
          "name": "",
          "type": "string[]"
        }
      ],
      "payable": false,
      "stateMutability": "view",
      "type": "function"
    },
    {
      "constant": true,
      "inputs": [],
      "name": "viewAllPendingPromiseTitles",
      "outputs": [
        {
          "internalType": "string[]",
          "name": "",
          "type": "string[]"
        }
      ],
      "payable": false,
      "stateMutability": "view",
      "type": "function"
    },
    {
      "constant": true,
      "inputs": [],
      "name": "viewAllPendingPromiseBuilders",
      "outputs": [
        {
          "internalType": "string[]",
          "name": "",
          "type": "string[]"
        }
      ],
      "payable": false,
      "stateMutability": "view",
      "type": "function"
    },
    {
      "constant": true,
      "inputs": [],
      "name": "viewAllPendingPromiseRecipients",
      "outputs": [
        {
          "internalType": "string[]",
          "name": "",
          "type": "string[]"
        }
      ],
      "payable": false,
      "stateMutability": "view",
      "type": "function"
    },
    {
      "constant": true,
      "inputs": [],
      "name": "viewAllPendingPromiseIndices",
      "outputs": [
        {
          "internalType": "uint256[]",
          "name": "",
          "type": "uint256[]"
        }
      ],
      "payable": false,
      "stateMutability": "view",
      "type": "function"
    },
    {
      "constant": true,
      "inputs": [],
      "name": "viewAllSignedPromises",
      "outputs": [
        {
          "internalType": "string[]",
          "name": "",
          "type": "string[]"
        }
      ],
      "payable": false,
      "stateMutability": "view",
      "type": "function"
    },
    {
      "constant": true,
      "inputs": [],
      "name": "viewAllSignedPromiseTitles",
      "outputs": [
        {
          "internalType": "string[]",
          "name": "",
          "type": "string[]"
        }
      ],
      "payable": false,
      "stateMutability": "view",
      "type": "function"
    },
    {
      "constant": true,
      "inputs": [],
      "name": "viewAllSignedPromiseBuilders",
      "outputs": [
        {
          "internalType": "string[]",
          "name": "",
          "type": "string[]"
        }
      ],
      "payable": false,
      "stateMutability": "view",
      "type": "function"
    },
    {
      "constant": true,
      "inputs": [],
      "name": "viewAllSignedPromiseRecipients",
      "outputs": [
        {
          "internalType": "string[]",
          "name": "",
          "type": "string[]"
        }
      ],
      "payable": false,
      "stateMutability": "view",
      "type": "function"
    },
    {
      "constant": true,
      "inputs": [],
      "name": "viewAllRejectedPromises",
      "outputs": [
        {
          "internalType": "string[]",
          "name": "",
          "type": "string[]"
        }
      ],
      "payable": false,
      "stateMutability": "view",
      "type": "function"
    },
    {
      "constant": true,
      "inputs": [],
      "name": "viewAllRejectedPromiseTitles",
      "outputs": [
        {
          "internalType": "string[]",
          "name": "",
          "type": "string[]"
        }
      ],
      "payable": false,
      "stateMutability": "view",
      "type": "function"
    },
    {
      "constant": true,
      "inputs": [],
      "name": "viewAllRejectedPromiseBuilders",
      "outputs": [
        {
          "internalType": "string[]",
          "name": "",
          "type": "string[]"
        }
      ],
      "payable": false,
      "stateMutability": "view",
      "type": "function"
    },
    {
      "constant": true,
      "inputs": [],
      "name": "viewAllRejectedPromiseRecipients",
      "outputs": [
        {
          "internalType": "string[]",
          "name": "",
          "type": "string[]"
        }
      ],
      "payable": false,
      "stateMutability": "view",
      "type": "function"
    },
    {
      "constant": true,
      "inputs": [
        {
          "internalType": "address",
          "name": "_addr",
          "type": "address"
        }
      ],
      "name": "addressToString",
      "outputs": [
        {
          "internalType": "string",
          "name": "",
          "type": "string"
        }
      ],
      "payable": false,
      "stateMutability": "pure",
      "type": "function"
    }
  ],
  "bytecode": "0x608060405234801561001057600080fd5b5033600160006101000a81548173ffffffffffffffffffffffffffffffffffffffff021916908373ffffffffffffffffffffffffffffffffffffffff160217905550613d4d806100616000396000f3fe6080604052600436106101c25760003560e01c8063840f2d0a116100f7578063c058b7ab11610095578063ddfd673111610064578063ddfd67311461067e578063e1c453c7146106a9578063f29c4f97146106e6578063f88030d714610711576101c2565b8063c058b7ab146105ae578063ca6f3717146105d9578063daa81baa14610616578063dc7fd3b114610653576101c2565b80639a3d7537116100d15780639a3d7537146104ff578063a49082351461053c578063ab1d416614610567578063b3fe498c14610592576101c2565b8063840f2d0a1461047e5780638bb4126c146104a957806390fcad4e146104d4576101c2565b806340bb2f821161016457806359fa4fba1161013e57806359fa4fba146103b05780635df9dc0c146103ed5780635e57966d146104165780637ba7408614610453576101c2565b806340bb2f821461032f57806348aff7b61461035a5780634cebac2e14610385576101c2565b80631a5ccc4c116101a05780631a5ccc4c1461025a578063284ca68e146102975780632e937c53146102d45780633e4e0f40146102ff576101c2565b806309cb0fb3146101c7578063130b0595146101f25780631a084eb51461022f575b600080fd5b3480156101d357600080fd5b506101dc61073c565b6040516101e99190613a5c565b60405180910390f35b3480156101fe57600080fd5b5061021960048036036102149190810190613718565b6107db565b6040516102269190613aa0565b60405180910390f35b34801561023b57600080fd5b50610244610894565b6040516102519190613a7e565b60405180910390f35b34801561026657600080fd5b50610281600480360361027c9190810190613718565b61092f565b60405161028e9190613ac2565b60405180910390f35b3480156102a357600080fd5b506102be60048036036102b99190810190613718565b610ac7565b6040516102cb9190613ae4565b60405180910390f35b3480156102e057600080fd5b506102e9610bc7565b6040516102f69190613ae4565b60405180910390f35b61031960048036036103149190810190613685565b610bcd565b6040516103269190613ae4565b60405180910390f35b34801561033b57600080fd5b50610344610fc7565b6040516103519190613a5c565b60405180910390f35b34801561036657600080fd5b5061036f611066565b60405161037c9190613a7e565b60405180910390f35b34801561039157600080fd5b5061039a6110fb565b6040516103a79190613a5c565b60405180910390f35b3480156103bc57600080fd5b506103d760048036036103d29190810190613718565b61119a565b6040516103e49190613ac2565b60405180910390f35b3480156103f957600080fd5b50610414600480360361040f9190810190613718565b6112c5565b005b34801561042257600080fd5b5061043d6004803603610438919081019061365c565b611c56565b60405161044a9190613ac2565b60405180910390f35b34801561045f57600080fd5b50610468611ed7565b6040516104759190613a5c565b60405180910390f35b34801561048a57600080fd5b50610493611f76565b6040516104a09190613a5c565b60405180910390f35b3480156104b557600080fd5b506104be612015565b6040516104cb9190613a5c565b60405180910390f35b3480156104e057600080fd5b506104e96120b4565b6040516104f69190613a5c565b60405180910390f35b34801561050b57600080fd5b5061052660048036036105219190810190613718565b612153565b6040516105339190613aa0565b60405180910390f35b34801561054857600080fd5b5061055161220c565b60405161055e9190613a7e565b60405180910390f35b34801561057357600080fd5b5061057c6122a1565b6040516105899190613a5c565b60405180910390f35b6105ac60048036036105a79190810190613718565b612340565b005b3480156105ba57600080fd5b506105c3612b22565b6040516105d09190613a5c565b60405180910390f35b3480156105e557600080fd5b5061060060048036036105fb9190810190613718565b612bc1565b60405161060d9190613ac2565b60405180910390f35b34801561062257600080fd5b5061063d60048036036106389190810190613718565b612d59565b60405161064a9190613aa0565b60405180910390f35b34801561065f57600080fd5b50610668612e12565b6040516106759190613a5c565b60405180910390f35b34801561068a57600080fd5b50610693612eb1565b6040516106a09190613a5c565b60405180910390f35b3480156106b557600080fd5b506106d060048036036106cb9190810190613718565b612f50565b6040516106dd9190613ac2565b60405180910390f35b3480156106f257600080fd5b506106fb61307b565b6040516107089190613a5c565b60405180910390f35b34801561071d57600080fd5b5061072661311a565b6040516107339190613a7e565b60405180910390f35b60608061074761220c565b90506060815160405190808252806020026020018201604052801561078057816020015b606081526020019060019003908161076b5790505b50905060008090505b82518110156107d2576107ae8382815181106107a157fe5b6020026020010151612f50565b8282815181106107ba57fe5b60200260200101819052508080600101915050610789565b50809250505090565b600981815481106107e857fe5b906000526020600020016000915090508054600181600116156101000203166002900480601f01602080910402602001604051908101604052809291908181526020018280546001816001161561010002031660029004801561088c5780601f106108615761010080835404028352916020019161088c565b820191906000526020600020905b81548152906001019060200180831161086f57829003601f168201915b505050505081565b60608061089f61311a565b9050606081516040519080825280602002602001820160405280156108d35781602001602082028038833980820191505090505b50905060008090505b8251811015610926576109018382815181106108f457fe5b6020026020010151610ac7565b82828151811061090d57fe5b60200260200101818152505080806001019150506108dc565b50809250505090565b60606002600083815260200190815260200160002060010160000160009054906101000a900473ffffffffffffffffffffffffffffffffffffffff1673ffffffffffffffffffffffffffffffffffffffff163373ffffffffffffffffffffffffffffffffffffffff161480610a0857506002600083815260200190815260200160002060020160000160009054906101000a900473ffffffffffffffffffffffffffffffffffffffff1673ffffffffffffffffffffffffffffffffffffffff163373ffffffffffffffffffffffffffffffffffffffff16145b610a1157600080fd5b600260008381526020019081526020016000206003018054600181600116156101000203166002900480601f016020809104026020016040519081016040528092919081815260200182805460018160011615610100020316600290048015610abb5780601f10610a9057610100808354040283529160200191610abb565b820191906000526020600020905b815481529060010190602001808311610a9e57829003601f168201915b50505050509050919050565b60006002600083815260200190815260200160002060010160000160009054906101000a900473ffffffffffffffffffffffffffffffffffffffff1673ffffffffffffffffffffffffffffffffffffffff163373ffffffffffffffffffffffffffffffffffffffff161480610ba057506002600083815260200190815260200160002060020160000160009054906101000a900473ffffffffffffffffffffffffffffffffffffffff1673ffffffffffffffffffffffffffffffffffffffff163373ffffffffffffffffffffffffffffffffffffffff16145b610ba957600080fd5b60026000838152602001908152602001600020600001549050919050565b60005481565b60008473ffffffffffffffffffffffffffffffffffffffff163373ffffffffffffffffffffffffffffffffffffffff1614610c0757600080fd5b8373ffffffffffffffffffffffffffffffffffffffff163373ffffffffffffffffffffffffffffffffffffffff161415610c4057600080fd5b600160009054906101000a900473ffffffffffffffffffffffffffffffffffffffff1673ffffffffffffffffffffffffffffffffffffffff166108fc349081150290604051600060405180830381858888f19350505050158015610ca8573d6000803e3d6000fd5b5060008081548092919060010191905055506040518060c00160405280600054815260200160405180604001604052808873ffffffffffffffffffffffffffffffffffffffff16815260200160011515815250815260200160405180604001604052808773ffffffffffffffffffffffffffffffffffffffff1681526020016000151581525081526020018481526020018381526020016000151581525060026000805481526020019081526020016000206000820151816000015560208201518160010160008201518160000160006101000a81548173ffffffffffffffffffffffffffffffffffffffff021916908373ffffffffffffffffffffffffffffffffffffffff16021790555060208201518160000160146101000a81548160ff021916908315150217905550505060408201518160020160008201518160000160006101000a81548173ffffffffffffffffffffffffffffffffffffffff021916908373ffffffffffffffffffffffffffffffffffffffff16021790555060208201518160000160146101000a81548160ff02191690831515021790555050506060820151816003019080519060200190610e649291906134b2565b506080820151816004019080519060200190610e819291906134b2565b5060a08201518160050160006101000a81548160ff021916908315150217905550905050600760008673ffffffffffffffffffffffffffffffffffffffff1673ffffffffffffffffffffffffffffffffffffffff1681526020019081526020016000206000549080600181540180825580915050906001820390600052602060002001600090919290919091505550600760008573ffffffffffffffffffffffffffffffffffffffff1673ffffffffffffffffffffffffffffffffffffffff16815260200190815260200160002060005490806001815401808255809150509060018203906000526020600020016000909192909190915055507faa770d1b5bc028c169b4d161b6157aa0b5c0a8e262609fb3e19d03fc7d62a33c846000548585604051610fb29493929190613a09565b60405180910390a16000549050949350505050565b606080610fd261311a565b90506060815160405190808252806020026020018201604052801561100b57816020015b6060815260200190600190039081610ff65790505b50905060008090505b825181101561105d5761103983828151811061102c57fe5b602002602001015161119a565b82828151811061104557fe5b60200260200101819052508080600101915050611014565b50809250505090565b6060600660003373ffffffffffffffffffffffffffffffffffffffff1673ffffffffffffffffffffffffffffffffffffffff1681526020019081526020016000208054806020026020016040519081016040528092919081815260200182805480156110f157602002820191906000526020600020905b8154815260200190600101908083116110dd575b5050505050905090565b60608061110661311a565b90506060815160405190808252806020026020018201604052801561113f57816020015b606081526020019060019003908161112a5790505b50905060008090505b82518110156111915761116d83828151811061116057fe5b6020026020010151612f50565b82828151811061117957fe5b60200260200101819052508080600101915050611148565b50809250505090565b60606002600083815260200190815260200160002060010160000160009054906101000a900473ffffffffffffffffffffffffffffffffffffffff1673ffffffffffffffffffffffffffffffffffffffff163373ffffffffffffffffffffffffffffffffffffffff16148061127357506002600083815260200190815260200160002060020160000160009054906101000a900473ffffffffffffffffffffffffffffffffffffffff1673ffffffffffffffffffffffffffffffffffffffff163373ffffffffffffffffffffffffffffffffffffffff16145b61127c57600080fd5b6112be6002600084815260200190815260200160002060020160000160009054906101000a900473ffffffffffffffffffffffffffffffffffffffff16611c56565b9050919050565b6002600082815260200190815260200160002060020160000160009054906101000a900473ffffffffffffffffffffffffffffffffffffffff1673ffffffffffffffffffffffffffffffffffffffff163373ffffffffffffffffffffffffffffffffffffffff161461133657600080fd5b60006002600083815260200190815260200160002060050160006101000a81548160ff02191690831515021790555060026000828152602001908152602001600020600460008381526020019081526020016000206000820154816000015560018201816001016000820160009054906101000a900473ffffffffffffffffffffffffffffffffffffffff168160000160006101000a81548173ffffffffffffffffffffffffffffffffffffffff021916908373ffffffffffffffffffffffffffffffffffffffff1602179055506000820160149054906101000a900460ff168160000160146101000a81548160ff021916908315150217905550505060028201816002016000820160009054906101000a900473ffffffffffffffffffffffffffffffffffffffff168160000160006101000a81548173ffffffffffffffffffffffffffffffffffffffff021916908373ffffffffffffffffffffffffffffffffffffffff1602179055506000820160149054906101000a900460ff168160000160146101000a81548160ff0219169083151502179055505050600382018160030190805460018160011615610100020316600290046114f8929190613532565b5060048201816004019080546001816001161561010002031660029004611520929190613532565b506005820160009054906101000a900460ff168160050160006101000a81548160ff021916908315150217905550905050600660003373ffffffffffffffffffffffffffffffffffffffff1673ffffffffffffffffffffffffffffffffffffffff168152602001908152602001600020819080600181540180825580915050906001820390600052602060002001600090919290919091505550600660006002600084815260200190815260200160002060010160000160009054906101000a900473ffffffffffffffffffffffffffffffffffffffff1673ffffffffffffffffffffffffffffffffffffffff1673ffffffffffffffffffffffffffffffffffffffff1681526020019081526020016000208190806001815401808255809150509060018203906000526020600020016000909192909190915055507faa770d1b5bc028c169b4d161b6157aa0b5c0a8e262609fb3e19d03fc7d62a33c338260026000858152602001908152602001600020600301600260008681526020019081526020016000206004016040516116bb94939291906139b6565b60405180910390a16060600760003373ffffffffffffffffffffffffffffffffffffffff1673ffffffffffffffffffffffffffffffffffffffff16815260200190815260200160002080548060200260200160405190810160405280929190818152602001828054801561174e57602002820191906000526020600020905b81548152602001906001019080831161173a575b5050505050905060005b81518110156118f9578282828151811061176e57fe5b602002602001015114156118ec5760008190505b6001600760003373ffffffffffffffffffffffffffffffffffffffff1673ffffffffffffffffffffffffffffffffffffffff168152602001908152602001600020805490500381101561188c57600760003373ffffffffffffffffffffffffffffffffffffffff1673ffffffffffffffffffffffffffffffffffffffff168152602001908152602001600020600183018154811061181c57fe5b9060005260206000200154600760003373ffffffffffffffffffffffffffffffffffffffff1673ffffffffffffffffffffffffffffffffffffffff168152602001908152602001600020838154811061187157fe5b90600052602060002001819055508080600101915050611782565b50600760003373ffffffffffffffffffffffffffffffffffffffff1673ffffffffffffffffffffffffffffffffffffffff1681526020019081526020016000208054806118d557fe5b600190038181906000526020600020016000905590555b8080600101915050611758565b506060600760006002600086815260200190815260200160002060010160000160009054906101000a900473ffffffffffffffffffffffffffffffffffffffff1673ffffffffffffffffffffffffffffffffffffffff1673ffffffffffffffffffffffffffffffffffffffff1681526020019081526020016000208054806020026020016040519081016040528092919081815260200182805480156119be57602002820191906000526020600020905b8154815260200190600101908083116119aa575b5050505050905060008090505b8151811015611c5057838282815181106119e157fe5b60200260200101511415611c435760008190505b6001600760006002600089815260200190815260200160002060010160000160009054906101000a900473ffffffffffffffffffffffffffffffffffffffff1673ffffffffffffffffffffffffffffffffffffffff1673ffffffffffffffffffffffffffffffffffffffff1681526020019081526020016000208054905003811015611baa57600760006002600088815260200190815260200160002060010160000160009054906101000a900473ffffffffffffffffffffffffffffffffffffffff1673ffffffffffffffffffffffffffffffffffffffff1673ffffffffffffffffffffffffffffffffffffffff1681526020019081526020016000206001830181548110611b0157fe5b9060005260206000200154600760006002600089815260200190815260200160002060010160000160009054906101000a900473ffffffffffffffffffffffffffffffffffffffff1673ffffffffffffffffffffffffffffffffffffffff1673ffffffffffffffffffffffffffffffffffffffff1681526020019081526020016000208381548110611b8f57fe5b906000526020600020018190555080806001019150506119f5565b50600760006002600087815260200190815260200160002060010160000160009054906101000a900473ffffffffffffffffffffffffffffffffffffffff1673ffffffffffffffffffffffffffffffffffffffff1673ffffffffffffffffffffffffffffffffffffffff168152602001908152602001600020805480611c2c57fe5b600190038181906000526020600020016000905590555b80806001019150506119cb565b50505050565b606060008273ffffffffffffffffffffffffffffffffffffffff1660001b905060606040518060400160405280601081526020017f30313233343536373839616263646566000000000000000000000000000000008152509050606060336040519080825280601f01601f191660200182016040528015611ce65781602001600182028038833980820191505090505b5090507f300000000000000000000000000000000000000000000000000000000000000081600081518110611d1757fe5b60200101907effffffffffffffffffffffffffffffffffffffffffffffffffffffffffffff1916908160001a9053507f780000000000000000000000000000000000000000000000000000000000000081600181518110611d7457fe5b60200101907effffffffffffffffffffffffffffffffffffffffffffffffffffffffffffff1916908160001a90535060008090505b6014811015611ecb5782600485600c840160208110611dc457fe5b1a60f81b7effffffffffffffffffffffffffffffffffffffffffffffffffffffffffffff1916901c60f81c60ff1681518110611dfc57fe5b602001015160f81c60f81b826002830260020181518110611e1957fe5b60200101907effffffffffffffffffffffffffffffffffffffffffffffffffffffffffffff1916908160001a90535082600f60f81b85600c840160208110611e5d57fe5b1a60f81b1660f81c60ff1681518110611e7257fe5b602001015160f81c60f81b826002830260030181518110611e8f57fe5b60200101907effffffffffffffffffffffffffffffffffffffffffffffffffffffffffffff1916908160001a9053508080600101915050611da9565b50809350505050919050565b606080611ee261220c565b905060608151604051908082528060200260200182016040528015611f1b57816020015b6060815260200190600190039081611f065790505b50905060008090505b8251811015611f6d57611f49838281518110611f3c57fe5b602002602001015161119a565b828281518110611f5557fe5b60200260200101819052508080600101915050611f24565b50809250505090565b606080611f8161220c565b905060608151604051908082528060200260200182016040528015611fba57816020015b6060815260200190600190039081611fa55790505b50905060008090505b825181101561200c57611fe8838281518110611fdb57fe5b602002602001015161092f565b828281518110611ff457fe5b60200260200101819052508080600101915050611fc3565b50809250505090565b606080612020611066565b90506060815160405190808252806020026020018201604052801561205957816020015b60608152602001906001900390816120445790505b50905060008090505b82518110156120ab5761208783828151811061207a57fe5b6020026020010151612f50565b82828151811061209357fe5b60200260200101819052508080600101915050612062565b50809250505090565b6060806120bf61311a565b9050606081516040519080825280602002602001820160405280156120f857816020015b60608152602001906001900390816120e35790505b50905060008090505b825181101561214a5761212683828151811061211957fe5b602002602001015161092f565b82828151811061213257fe5b60200260200101819052508080600101915050612101565b50809250505090565b600a818154811061216057fe5b906000526020600020016000915090508054600181600116156101000203166002900480601f0160208091040260200160405190810160405280929190818152602001828054600181600116156101000203166002900480156122045780601f106121d957610100808354040283529160200191612204565b820191906000526020600020905b8154815290600101906020018083116121e757829003601f168201915b505050505081565b6060600560003373ffffffffffffffffffffffffffffffffffffffff1673ffffffffffffffffffffffffffffffffffffffff16815260200190815260200160002080548060200260200160405190810160405280929190818152602001828054801561229757602002820191906000526020600020905b815481526020019060010190808311612283575b5050505050905090565b6060806122ac611066565b9050606081516040519080825280602002602001820160405280156122e557816020015b60608152602001906001900390816122d05790505b50905060008090505b82518110156123375761231383828151811061230657fe5b602002602001015161119a565b82828151811061231f57fe5b602002602001018190525080806001019150506122ee565b50809250505090565b6002600082815260200190815260200160002060020160000160009054906101000a900473ffffffffffffffffffffffffffffffffffffffff1673ffffffffffffffffffffffffffffffffffffffff163373ffffffffffffffffffffffffffffffffffffffff16146123b157600080fd5b60016002600083815260200190815260200160002060020160000160146101000a81548160ff02191690831515021790555060016002600083815260200190815260200160002060050160006101000a81548160ff02191690831515021790555061241b816131af565b600160009054906101000a900473ffffffffffffffffffffffffffffffffffffffff1673ffffffffffffffffffffffffffffffffffffffff166108fc349081150290604051600060405180830381858888f19350505050158015612483573d6000803e3d6000fd5b50600560003373ffffffffffffffffffffffffffffffffffffffff1673ffffffffffffffffffffffffffffffffffffffff168152602001908152602001600020819080600181540180825580915050906001820390600052602060002001600090919290919091505550600560006002600084815260200190815260200160002060010160000160009054906101000a900473ffffffffffffffffffffffffffffffffffffffff1673ffffffffffffffffffffffffffffffffffffffff1673ffffffffffffffffffffffffffffffffffffffff1681526020019081526020016000208190806001815401808255809150509060018203906000526020600020016000909192909190915055506060600760003373ffffffffffffffffffffffffffffffffffffffff1673ffffffffffffffffffffffffffffffffffffffff16815260200190815260200160002080548060200260200160405190810160405280929190818152602001828054801561261a57602002820191906000526020600020905b815481526020019060010190808311612606575b5050505050905060005b81518110156127c5578282828151811061263a57fe5b602002602001015114156127b85760008190505b6001600760003373ffffffffffffffffffffffffffffffffffffffff1673ffffffffffffffffffffffffffffffffffffffff168152602001908152602001600020805490500381101561275857600760003373ffffffffffffffffffffffffffffffffffffffff1673ffffffffffffffffffffffffffffffffffffffff16815260200190815260200160002060018301815481106126e857fe5b9060005260206000200154600760003373ffffffffffffffffffffffffffffffffffffffff1673ffffffffffffffffffffffffffffffffffffffff168152602001908152602001600020838154811061273d57fe5b9060005260206000200181905550808060010191505061264e565b50600760003373ffffffffffffffffffffffffffffffffffffffff1673ffffffffffffffffffffffffffffffffffffffff1681526020019081526020016000208054806127a157fe5b600190038181906000526020600020016000905590555b8080600101915050612624565b506060600760006002600086815260200190815260200160002060010160000160009054906101000a900473ffffffffffffffffffffffffffffffffffffffff1673ffffffffffffffffffffffffffffffffffffffff1673ffffffffffffffffffffffffffffffffffffffff16815260200190815260200160002080548060200260200160405190810160405280929190818152602001828054801561288a57602002820191906000526020600020905b815481526020019060010190808311612876575b5050505050905060008090505b8151811015612b1c57838282815181106128ad57fe5b60200260200101511415612b0f5760008190505b6001600760006002600089815260200190815260200160002060010160000160009054906101000a900473ffffffffffffffffffffffffffffffffffffffff1673ffffffffffffffffffffffffffffffffffffffff1673ffffffffffffffffffffffffffffffffffffffff1681526020019081526020016000208054905003811015612a7657600760006002600088815260200190815260200160002060010160000160009054906101000a900473ffffffffffffffffffffffffffffffffffffffff1673ffffffffffffffffffffffffffffffffffffffff1673ffffffffffffffffffffffffffffffffffffffff16815260200190815260200160002060018301815481106129cd57fe5b9060005260206000200154600760006002600089815260200190815260200160002060010160000160009054906101000a900473ffffffffffffffffffffffffffffffffffffffff1673ffffffffffffffffffffffffffffffffffffffff1673ffffffffffffffffffffffffffffffffffffffff1681526020019081526020016000208381548110612a5b57fe5b906000526020600020018190555080806001019150506128c1565b50600760006002600087815260200190815260200160002060010160000160009054906101000a900473ffffffffffffffffffffffffffffffffffffffff1673ffffffffffffffffffffffffffffffffffffffff1673ffffffffffffffffffffffffffffffffffffffff168152602001908152602001600020805480612af857fe5b600190038181906000526020600020016000905590555b8080600101915050612897565b50505050565b606080612b2d611066565b905060608151604051908082528060200260200182016040528015612b6657816020015b6060815260200190600190039081612b515790505b50905060008090505b8251811015612bb857612b94838281518110612b8757fe5b6020026020010151612bc1565b828281518110612ba057fe5b60200260200101819052508080600101915050612b6f565b50809250505090565b60606002600083815260200190815260200160002060010160000160009054906101000a900473ffffffffffffffffffffffffffffffffffffffff1673ffffffffffffffffffffffffffffffffffffffff163373ffffffffffffffffffffffffffffffffffffffff161480612c9a57506002600083815260200190815260200160002060020160000160009054906101000a900473ffffffffffffffffffffffffffffffffffffffff1673ffffffffffffffffffffffffffffffffffffffff163373ffffffffffffffffffffffffffffffffffffffff16145b612ca357600080fd5b600260008381526020019081526020016000206004018054600181600116156101000203166002900480601f016020809104026020016040519081016040528092919081815260200182805460018160011615610100020316600290048015612d4d5780601f10612d2257610100808354040283529160200191612d4d565b820191906000526020600020905b815481529060010190602001808311612d3057829003601f168201915b50505050509050919050565b60088181548110612d6657fe5b906000526020600020016000915090508054600181600116156101000203166002900480601f016020809104026020016040519081016040528092919081815260200182805460018160011615610100020316600290048015612e0a5780601f10612ddf57610100808354040283529160200191612e0a565b820191906000526020600020905b815481529060010190602001808311612ded57829003601f168201915b505050505081565b606080612e1d611066565b905060608151604051908082528060200260200182016040528015612e5657816020015b6060815260200190600190039081612e415790505b50905060008090505b8251811015612ea857612e84838281518110612e7757fe5b602002602001015161092f565b828281518110612e9057fe5b60200260200101819052508080600101915050612e5f565b50809250505090565b606080612ebc61311a565b905060608151604051908082528060200260200182016040528015612ef557816020015b6060815260200190600190039081612ee05790505b50905060008090505b8251811015612f4757612f23838281518110612f1657fe5b6020026020010151612bc1565b828281518110612f2f57fe5b60200260200101819052508080600101915050612efe565b50809250505090565b60606002600083815260200190815260200160002060010160000160009054906101000a900473ffffffffffffffffffffffffffffffffffffffff1673ffffffffffffffffffffffffffffffffffffffff163373ffffffffffffffffffffffffffffffffffffffff16148061302957506002600083815260200190815260200160002060020160000160009054906101000a900473ffffffffffffffffffffffffffffffffffffffff1673ffffffffffffffffffffffffffffffffffffffff163373ffffffffffffffffffffffffffffffffffffffff16145b61303257600080fd5b6130746002600084815260200190815260200160002060010160000160009054906101000a900473ffffffffffffffffffffffffffffffffffffffff16611c56565b9050919050565b60608061308661220c565b9050606081516040519080825280602002602001820160405280156130bf57816020015b60608152602001906001900390816130aa5790505b50905060008090505b8251811015613111576130ed8382815181106130e057fe5b6020026020010151612bc1565b8282815181106130f957fe5b602002602001018190525080806001019150506130c8565b50809250505090565b6060600760003373ffffffffffffffffffffffffffffffffffffffff1673ffffffffffffffffffffffffffffffffffffffff1681526020019081526020016000208054806020026020016040519081016040528092919081815260200182805480156131a557602002820191906000526020600020905b815481526020019060010190808311613191575b5050505050905090565b6002600082815260200190815260200160002060010160000160009054906101000a900473ffffffffffffffffffffffffffffffffffffffff1673ffffffffffffffffffffffffffffffffffffffff163373ffffffffffffffffffffffffffffffffffffffff16148061328657506002600082815260200190815260200160002060020160000160009054906101000a900473ffffffffffffffffffffffffffffffffffffffff1673ffffffffffffffffffffffffffffffffffffffff163373ffffffffffffffffffffffffffffffffffffffff16145b61328f57600080fd5b600115156002600083815260200190815260200160002060050160009054906101000a900460ff161515146132c357600080fd5b60026000828152602001908152602001600020600360008381526020019081526020016000206000820154816000015560018201816001016000820160009054906101000a900473ffffffffffffffffffffffffffffffffffffffff168160000160006101000a81548173ffffffffffffffffffffffffffffffffffffffff021916908373ffffffffffffffffffffffffffffffffffffffff1602179055506000820160149054906101000a900460ff168160000160146101000a81548160ff021916908315150217905550505060028201816002016000820160009054906101000a900473ffffffffffffffffffffffffffffffffffffffff168160000160006101000a81548173ffffffffffffffffffffffffffffffffffffffff021916908373ffffffffffffffffffffffffffffffffffffffff1602179055506000820160149054906101000a900460ff168160000160146101000a81548160ff021916908315150217905550505060038201816003019080546001816001161561010002031660029004613456929190613532565b506004820181600401908054600181600116156101000203166002900461347e929190613532565b506005820160009054906101000a900460ff168160050160006101000a81548160ff02191690831515021790555090505050565b828054600181600116156101000203166002900490600052602060002090601f016020900481019282601f106134f357805160ff1916838001178555613521565b82800160010185558215613521579182015b82811115613520578251825591602001919060010190613505565b5b50905061352e91906135b9565b5090565b828054600181600116156101000203166002900490600052602060002090601f016020900481019282601f1061356b57805485556135a8565b828001600101855582156135a857600052602060002091601f016020900482015b828111156135a757825482559160010191906001019061358c565b5b5090506135b591906135b9565b5090565b6135db91905b808211156135d75760008160009055506001016135bf565b5090565b90565b6000813590506135ed81613cdc565b92915050565b600082601f83011261360457600080fd5b813561361761361282613b2c565b613aff565b9150808252602083016020830185838301111561363357600080fd5b61363e838284613c89565b50505092915050565b60008135905061365681613cf3565b92915050565b60006020828403121561366e57600080fd5b600061367c848285016135de565b91505092915050565b6000806000806080858703121561369b57600080fd5b60006136a9878288016135de565b94505060206136ba878288016135de565b935050604085013567ffffffffffffffff8111156136d757600080fd5b6136e3878288016135f3565b925050606085013567ffffffffffffffff81111561370057600080fd5b61370c878288016135f3565b91505092959194509250565b60006020828403121561372a57600080fd5b600061373884828501613647565b91505092915050565b600061374d8383613897565b905092915050565b60006137618383613998565b60208301905092915050565b61377681613c53565b82525050565b61378581613c17565b82525050565b600061379682613b8d565b6137a08185613bd3565b9350836020820285016137b285613b58565b8060005b858110156137ee57848403895281516137cf8582613741565b94506137da83613bb9565b925060208a019950506001810190506137b6565b50829750879550505050505092915050565b600061380b82613b98565b6138158185613be4565b935061382083613b68565b8060005b838110156138515781516138388882613755565b975061384383613bc6565b925050600181019050613824565b5085935050505092915050565b600061386982613bae565b6138738185613c06565b9350613883818560208601613c98565b61388c81613ccb565b840191505092915050565b60006138a282613ba3565b6138ac8185613bf5565b93506138bc818560208601613c98565b6138c581613ccb565b840191505092915050565b60006138db82613ba3565b6138e58185613c06565b93506138f5818560208601613c98565b6138fe81613ccb565b840191505092915050565b600081546001811660008114613926576001811461394c57613990565b607f60028304166139378187613c06565b955060ff198316865260208601935050613990565b6002820461395a8187613c06565b955061396585613b78565b60005b8281101561398757815481890152600182019150602081019050613968565b80880195505050505b505092915050565b6139a181613c49565b82525050565b6139b081613c49565b82525050565b60006080820190506139cb600083018761376d565b6139d860208301866139a7565b81810360408301526139ea8185613909565b905081810360608301526139fe8184613909565b905095945050505050565b6000608082019050613a1e600083018761377c565b613a2b60208301866139a7565b8181036040830152613a3d818561385e565b90508181036060830152613a51818461385e565b905095945050505050565b60006020820190508181036000830152613a76818461378b565b905092915050565b60006020820190508181036000830152613a988184613800565b905092915050565b60006020820190508181036000830152613aba81846138d0565b905092915050565b60006020820190508181036000830152613adc818461385e565b905092915050565b6000602082019050613af960008301846139a7565b92915050565b6000604051905081810181811067ffffffffffffffff82111715613b2257600080fd5b8060405250919050565b600067ffffffffffffffff821115613b4357600080fd5b601f19601f8301169050602081019050919050565b6000819050602082019050919050565b6000819050602082019050919050565b60008190508160005260206000209050919050565b600081519050919050565b600081519050919050565b600081519050919050565b600081519050919050565b6000602082019050919050565b6000602082019050919050565b600082825260208201905092915050565b600082825260208201905092915050565b600082825260208201905092915050565b600082825260208201905092915050565b6000613c2282613c29565b9050919050565b600073ffffffffffffffffffffffffffffffffffffffff82169050919050565b6000819050919050565b6000613c5e82613c65565b9050919050565b6000613c7082613c77565b9050919050565b6000613c8282613c29565b9050919050565b82818337600083830152505050565b60005b83811015613cb6578082015181840152602081019050613c9b565b83811115613cc5576000848401525b50505050565b6000601f19601f8301169050919050565b613ce581613c17565b8114613cf057600080fd5b50565b613cfc81613c49565b8114613d0757600080fd5b5056fea365627a7a723158202d1c4b882f1a36557b0df3955de8c444de91c6767bf672cd71f008958e6190ca6c6578706572696d656e74616cf564736f6c63430005100040",
  "source": "\n// pragma solidity ^0.5.1;\npragma solidity >=0.4.22 <0.8.0;\npragma experimental ABIEncoderV2;\n\ncontract SolidPromise\n{\n    uint256 public totalPromiseCount;              // The total count of the promises that have been created - used to index the promises. Default is 0.\n    address payable manager;\n    mapping(uint256=>Promise) pendingPromises;     // This mapping holds unconfirmed promises initially before they are signed by the participating parties.\n    mapping(uint256=>Promise) signedPromises;      // This mapping holds signed promises after they are signed by the participating parties.\n    mapping(uint256=>Promise) rejectedPromises;    // This mapping holds rejected promises after they are rejected by the participating promises.\n    \n    // Each address will have an individual array of promises associated with it. ----- Below\n    // Each mapping is called an archive.\n\n    mapping(address=>uint256[]) signedArchive;      // This mapping maps each address to an individual array of signed promises for it.\n    mapping(address=>uint256[]) rejectedArchive;    // This mapping maps each address to an individual array of rejected promises for it.\n    mapping(address=>uint256[]) pendingArchive;     // This mapping maps each address to an individual array of pending contracts for it.\n\n\n    string[] public allPendingPromisesForUser;\n    string[] public allSignedPromisesForUser;\n    string[] public allRejectedPromisesForUser;\n\n\n    /**\n     * Constructor\n     */\n\n    constructor() public \n    {\n        manager = msg.sender;\n    }\n\n    /**\n     * Modifier\n     * Modifiers can be used to change the behaviour of functions in a declarative way.\n     * This modifier checks to make sure the sender is the manager before executing the function. \n     */\n\n    modifier isManager()\n    {\n        require(msg.sender == manager);\n        _;\n    }\n\n    \n    /* This event notifies the other participating party of the promise that has been created.*/\n    event notify(\n        address recipientAccount,\n        uint256 promiseIndex,\n        string oathTitle,\n        string oath\n    );\n    \n    /* This struct holds the account address of an individual along with their commitment status.*/\n    struct partyStatus\n    {  \n        address accountAddress;\n        bool commitmentStatus;\n    }\n    \n    /*A structure that represents our Promise, it contains the index, commitment statuses of the participating parties, and a bool status. */\n    struct Promise \n    {\n        uint256 promiseIndex;\n        partyStatus builderAccount;\n        partyStatus recipientAccount;\n        string oathTitle;   // The title of the contract.\n        string oath;        // The terms of the contract.\n        bool status;\n    }\n   \n    /**\n     * This function is used to create a promise. After the builder creates the contract,\n     * it will be added to the pendingContracts mapping of the creator and the recipient.\n     * This function will fail unless the account entered as builder is the same account that \n     * is creating the promise.\n     * @param builder The address of the creator.\n     * @param recipient The address of the recipient.\n     * @param _oathTitle The title of the contract.\n     * @param _oath The contacts of the contract.\n     * @return The total count of promises.\n     */\n\n     function addPromise(address builder, address recipient, string memory _oathTitle, string memory _oath) public payable returns(uint256){ \n        \n        // When calling the function, require builder to be the person who is creating contract.\n        require(msg.sender == builder);\n\n        // When calling the function, prevent the builder from also being the recipient.\n        require(msg.sender != recipient);\n        \n        //require(msg.value==2 e);\n        manager.transfer(msg.value);       // Ethers are passed to the manager,,,calling addPromise function would cost the builder.\n\n        totalPromiseCount++;               // Increment the total promise count by 1. \n       // pendingProm.push(_oath);\n\n        /**\n         * pendingPromises is a mapping. What this function does is add the newly created promise to the pendingPromises mapping \n         * while using the totalPromiseCount as an index.\n         * The Promise Constructor accepts 6 arguments.\n         * 1. promiseIndex (which will be the total PromiseCount)\n         * 2. The partystatus of the contract creator.\n         * 3. The partstatus of the recipient.\n         * 4. The title of the contract.\n         * 5. The contents of the contract.\n         * 6. The status of the contract. (Not sure what this is).\n         * Question: In order to use the the 0 index, why don't we just add 1 to the totalPromiseCount AFTER we add to pendingPromises?\n         */\n\n        /*\n        partyStatus builderPartyStatus = partyStatus(builder, true);    // The status of the first user is true because they are the one who created it.\n        partyStatus recipientPartyStatus = partyStatus(builder, false); // The status of the second user is false because they haven't yet signed it.\n        pendingPromises[totalPromiseCount] = Promise(totalPromiseCount, builderPartyStatus, recipientPartyStatus, _oath, false);\n        */\n        pendingPromises[totalPromiseCount] = Promise(totalPromiseCount, partyStatus(builder, true), partyStatus(recipient, false),_oathTitle, _oath, false);\n\n\n        /**\n         * The following code adds the pending promise to the pending archive of both the contract creator and recipient.\n         * This mapping associates each address with an individual array of itself that will hold all of their contracts.\n         */\n\n        pendingArchive[builder].push(totalPromiseCount); // pushing the promise index into the unconfirmed  mapping keyed by the address.\n        pendingArchive[recipient].push(totalPromiseCount);\n\n        \n        // After the promises have been added to the respective arrays and mapping, emit event to signal to recipient.\n        emit notify(recipient, totalPromiseCount, _oathTitle, _oath); \n                \n        return totalPromiseCount;\n        \n    }\n\n    /**\n     * This function is used by the involved parties in order to view the contents of the contract.\n     * This function will fail if a user not involved with the contract attempts to view it by using index.\n     * @param index The index of promise that is within the pendingPromises mapping.\n     * @return The contents of the promise.\n     */\n\n     function viewPromise(uint256 index) public view returns(string memory)\n     { \n        require(msg.sender == pendingPromises[index].builderAccount.accountAddress || msg.sender == pendingPromises[index].recipientAccount.accountAddress);\n        return pendingPromises[index].oath;\n    }\n\n    /**\n     * This function is used by the involved parties in order to view the title of the contract.\n     * This function will fail if a user not involved with the contract attempts to view it by using index.\n     * @param index The index of promise that is within the pendingPromises mapping.\n     * @return The contents of the promise.\n     */\n\n     function viewPromiseTitle(uint256 index) public view returns(string memory)\n     { \n        require(msg.sender == pendingPromises[index].builderAccount.accountAddress || msg.sender == pendingPromises[index].recipientAccount.accountAddress);\n        return pendingPromises[index].oathTitle;\n    }\n\n    /**\n     * This function is used by the involved parties in order to view the public address of the creator of a contract.\n     * This function will fail if a user not involved with the contract attempts to view it by using index.\n     * @return The contract creator's public address converted to a string.\n     */\n\n    function viewPromiseBuilderAddress(uint256 index) public view returns(string memory)\n    {\n        require(msg.sender == pendingPromises[index].builderAccount.accountAddress || msg.sender == pendingPromises[index].recipientAccount.accountAddress);\n        return addressToString(pendingPromises[index].builderAccount.accountAddress);\n    }\n\n    /**\n     * This function is used by the involved parties in order to view the public address of the recipient of a contract.\n     * This function will fail if a user not involved with the contract attempts to view it by using index.\n     * @return The contract recipient's public address converted to a string.\n     */\n\n    function viewPromiseRecipientAddress(uint256 index) public view returns(string memory)\n    {\n        require(msg.sender == pendingPromises[index].builderAccount.accountAddress || msg.sender == pendingPromises[index].recipientAccount.accountAddress);\n        return addressToString(pendingPromises[index].recipientAccount.accountAddress);\n    }\n\n    /**\n     * This function is used by the recipient party in order to sign and confirm the promise.\n     * This function will fail if a party not involved with the contract attempts to sign it by using its index.\n     * @return index The index of the promise in the pendingPromises mapping.\n     */\n    \n    function viewPromiseIndex(uint256 index) public view returns(uint)\n    {\n        require(msg.sender == pendingPromises[index].builderAccount.accountAddress || msg.sender == pendingPromises[index].recipientAccount.accountAddress);\n        return pendingPromises[index].promiseIndex;\n    }\n     \n\n    function signPromise(uint256 index) public payable \n    {\n        // Require the caller of this function to be recipient of the contract.\n        require(msg.sender == pendingPromises[index].recipientAccount.accountAddress);\n      \n\n        // Change the commitment status of the recipient to true for this particular promise.\n        pendingPromises[index].recipientAccount.commitmentStatus = true;\n        pendingPromises[index].status = true;   \n        confirmPromise(index);\n        manager.transfer(msg.value);\n        \n        // Add the index of this promise to the signed archive of recipient.\n        signedArchive[msg.sender].push(index);    \n\n        // Add the index of this promise to the signed archive of creator.                                        \n        signedArchive[pendingPromises[index].builderAccount.accountAddress].push(index); \n        \n        \n        // After the promise is signed and added to signedArchive, we remove it from the pendingArchive.\n\n        // userPromises holds all of the pendingPromises of one individual user in an array.\n        // pendingArchive holds all the pendingPromises arrays for all users.\n        uint256[] memory userPromises;\n        userPromises = pendingArchive[msg.sender];\n\n\n        // Find the promise in the recipient's list of pending promises and delete it.\n        for (uint index2; index2 < userPromises.length; index2++)\n        {\n            if (userPromises[index2] == index) // Found it\n            {\n                // Shift all promises in the array left one spot at the point of deletion to replace deleted promise.\n                for (uint i = index2; i < pendingArchive[msg.sender].length - 1; i++)\n                {\n                    pendingArchive[msg.sender][index2] = pendingArchive[msg.sender][index2 + 1];\n\n                }\n                // Delete the last element.\n                pendingArchive[msg.sender].pop();   \n            }\n                \n        }\n\n\n        // Find the promise in the contract creator's list of pending promises and delete it.\n        uint256[] memory userPromises2;\n        userPromises2 = pendingArchive[pendingPromises[index].builderAccount.accountAddress];\n        for(uint index2 = 0; index2 < userPromises2.length; index2++)\n        {\n            if (userPromises2[index2] == index) // Found it\n            {\n                // Shift all promises in the array left one spot at the point of deletion to replace deleted promise.\n                 for (uint i = index2; i < pendingArchive[pendingPromises[index].builderAccount.accountAddress].length - 1; i++)\n                {\n                    pendingArchive[pendingPromises[index].builderAccount.accountAddress][index2] = pendingArchive[pendingPromises[index].builderAccount.accountAddress][index2 + 1];\n                }\n\n                // Delete the last element.\n                pendingArchive[pendingPromises[index].builderAccount.accountAddress].pop();\n            }\n        }\n    }\n    \n    /**\n     * This function is used by the recipient in order to reject the promise.\n     * After the promise is rejected it is added to the rejectedPromises mapping.\n     * This function will fail if it is called by an account that is not the recipient to the promise.\n     * @param index The index of the promise in the pendingPromises mapping.\n     */\n\n    function rejectPromise(uint256 index) public  \n    {\n        require(msg.sender == pendingPromises[index].recipientAccount.accountAddress);\n\n        pendingPromises[index].status = false;                  // Set the status of this promise to false.\n        rejectedPromises[index] = pendingPromises[index];       // Add this promise to the rejectPromises mapping at the exact same index?\n        rejectedArchive[msg.sender].push(index);                 // Add the index of this promise to the array of rejectedPromises for this user.\n        rejectedArchive[pendingPromises[index].builderAccount.accountAddress].push(index);  // Add the index of this promise to the array of rejectedPromises for creator.\n        \n        emit notify(msg.sender, index, pendingPromises[index].oathTitle, pendingPromises[index].oath);\n        \n\n        // Find the promise in the recipient's list of pending promises and delete it.\n        uint256[] memory userPromises;\n        userPromises = pendingArchive[msg.sender];\n\n        for (uint index2; index2 < userPromises.length; index2++)\n        {\n            // Found it.\n            if (userPromises[index2] == index)\n            {\n                // Shift all promises in the array left one spot at the point of deletion to replace deleted promise.\n                for (uint i = index2; i < pendingArchive[msg.sender].length - 1; i++)\n                {\n                    pendingArchive[msg.sender][index2] = pendingArchive[msg.sender][index2 + 1];\n\n                }\n                // Delete the last element.\n                pendingArchive[msg.sender].pop();   \n\n            }\n        }\n        \n        // Find the promise in the contract creator's list of pending promises and delete it.\n        uint256[] memory userPromises2;\n        userPromises2 = pendingArchive[pendingPromises[index].builderAccount.accountAddress];\n        for(uint index2 = 0; index2 < userPromises2.length; index2++)\n        {\n            // Found it.\n            if (userPromises2[index2] == index)\n            {\n                // Shift all promises in the array left one spot at the point of deletion to replace deleted promise.\n                 for (uint i = index2; i < pendingArchive[pendingPromises[index].builderAccount.accountAddress].length - 1; i++)\n                {\n                    pendingArchive[pendingPromises[index].builderAccount.accountAddress][index2] = pendingArchive[pendingPromises[index].builderAccount.accountAddress][index2 + 1];\n                }\n\n                // Delete the last element.\n                pendingArchive[pendingPromises[index].builderAccount.accountAddress].pop();\n\n            }\n        }\n    }\n    \n    /**\n     * This function confirms promises and transfers them to the signedPromises mapping.\n     * This function fails if it is called by a user not involved in the contract.\n     * @param index The index of the promise in the pendingPromise mapping.\n     */\n    function confirmPromise(uint256 index) internal \n    {\n        require(msg.sender == pendingPromises[index].builderAccount.accountAddress || msg.sender == pendingPromises[index].recipientAccount.accountAddress);\n        require(pendingPromises[index].status == true);\n\n        signedPromises[index] = pendingPromises[index];   // Add the signed promise at the exact same index as the pending promise was?\n        \n    }\n\n    /**\n     * This function returns an array containing all of the signed promises for one user.\n     * @return An array containing all signed contracts for user.\n     */\n    function viewSignedPromises() public view returns(uint256[] memory)\n    {\n       return signedArchive[msg.sender];\n    }\n\n    /**\n     * This function returns a mapping containing all of the rejected promises for one user.\n     * @return A mapping containing all rejected contracts for user.\n     */\n    function viewRejectedPromises() public view returns(uint256[] memory)\n    {   \n        return rejectedArchive[msg.sender];\n    }\n    \n    /**\n     * This function returns a mapping containing all of the pending promises for one user.\n     * @return A mapping containing all pending contracts for user.\n     */\n    function viewPendingPromises() public view returns(uint256[] memory)\n    {    \n        return pendingArchive[msg.sender];   \n    }\n\n    /******************************Pending Promises Helpers Start**********************************************/\n    /**\n     * This function helps in viewing promises. It prints all of the pending promise titles and contents\n     * for a single user and returns an array of strings.\n     * @return A string array containing all of the pending promises for a single user.\n     */\n\n    function viewAllPendingPromises() public view returns(string[] memory)\n    {\n        // Retrieve the full list of pending promises for this user.\n        uint256[] memory pendingPromisesAsIntegers = viewPendingPromises();\n\n        string[] memory allPendingPromises = new string[](pendingPromisesAsIntegers.length);\n\n        // Call view promise on each one and add the strings to allPendingPromises array.\n        for (uint index = 0; index < pendingPromisesAsIntegers.length; index++)\n        {\n            allPendingPromises[index] = viewPromise(pendingPromisesAsIntegers[index]);\n        }\n        \n        // Return the array of Promise strings.\n        return allPendingPromises;\n    }\n\n    /**\n     * This function helps in viewing promises. It prints all of the pending promise titles and contents\n     * for a single user and returns an array of strings.\n     * @return A string array containing all of the pending promises for a single user.\n     */\n\n    function viewAllPendingPromiseTitles() public view returns(string[] memory)\n    {\n        // Retrieve the full list of pending promises for this user.\n        uint256[] memory pendingPromisesAsIntegers = viewPendingPromises();\n\n        string[] memory allPendingPromises = new string[](pendingPromisesAsIntegers.length);\n\n        // Call view promise on each one and add the strings to allPendingPromises array.\n        for (uint index = 0; index < pendingPromisesAsIntegers.length; index++)\n        {\n            allPendingPromises[index] = viewPromiseTitle(pendingPromisesAsIntegers[index]);\n        }\n        \n        // Return the array of Promise strings.\n        return allPendingPromises;\n    }\n\n        /**\n     * This function helps in viewing promises. It prints all of the pending promise titles and contents\n     * for a single user and returns an array of strings.\n     * @return A string array containing all of the pending promises for a single user.\n     */\n\n    function viewAllPendingPromiseBuilders() public view returns(string[] memory)\n    {\n        // Retrieve the full list of pending promises for this user.\n        uint256[] memory pendingPromisesAsIntegers = viewPendingPromises();\n\n        string[] memory allPendingPromises = new string[](pendingPromisesAsIntegers.length);\n\n        // Call view promise builder on each one and add the strings to allPendingPromises array.\n        for (uint index = 0; index < pendingPromisesAsIntegers.length; index++)\n        {\n            allPendingPromises[index] = viewPromiseBuilderAddress(pendingPromisesAsIntegers[index]);\n        }\n        \n        // Return the array of Promise strings.\n        return allPendingPromises;\n    }\n\n    /**\n     * This function helps in viewing promises. It prints all of the pending promise titles and contents\n     * for a single user and returns an array of strings.\n     * @return A string array containing all of the pending promises for a single user.\n     */\n\n    function viewAllPendingPromiseRecipients() public view returns(string[] memory)\n    {\n        // Retrieve the full list of pending promises for this user.\n        uint256[] memory pendingPromisesAsIntegers = viewPendingPromises();\n\n        string[] memory allPendingPromises = new string[](pendingPromisesAsIntegers.length);\n\n        // Call view promise on each one and add the strings to allPendingPromises array.\n        for (uint index = 0; index < pendingPromisesAsIntegers.length; index++)\n        {\n            allPendingPromises[index] = viewPromiseRecipientAddress(pendingPromisesAsIntegers[index]);\n        }\n        \n        // Return the array of Promise strings.\n        return allPendingPromises;\n    }\n\n    /**\n     * This function helps in signining promises. It returns all of the indices the identify promises\n     * for a single user and returns an array of unit.\n     * @return An unit array containing all of the pending promises for a single user.\n     */\n\n    function viewAllPendingPromiseIndices() public view returns(uint[] memory)\n    {\n        // Retrieve the full list of pending promises for this user.\n        uint256[] memory pendingPromisesAsIntegers = viewPendingPromises();\n\n        uint256[] memory allPendingPromises = new uint256[](pendingPromisesAsIntegers.length);\n\n        // Call viewPromiseIndex on each one and add the indices to the allPendingPromises array.\n        for (uint index = 0; index < pendingPromisesAsIntegers.length; index++)\n        {\n            allPendingPromises[index] = viewPromiseIndex(pendingPromisesAsIntegers[index]);\n        }\n\n        // Return the array of Promise indices.\n        return allPendingPromises;\n    }\n    /******************************Pending Promises Helpers End**********************************************/\n\n    /******************************Signed Promises Helpers Start**********************************************/\n    /**\n     * This function helps in viewing promises. It prints all of the signed promises\n     * for a single user and returns an array of strings.\n     * @return A string array containing all of the signed promises for a single user.\n     */\n\n    function viewAllSignedPromises() public view returns(string[] memory)\n    {\n        // Retrieve the full list of signed promises for this user.\n        uint256[] memory signedPromisesAsIntegers = viewSignedPromises();\n\n        string[] memory allSignedPromises = new string[](signedPromisesAsIntegers.length);\n\n        // Call view promise on each one and add the strings to allSignedPromises array.\n        for (uint index = 0; index < signedPromisesAsIntegers.length; index++)\n        {\n            allSignedPromises[index] = viewPromise(signedPromisesAsIntegers[index]);\n        }\n        \n        // Return the array of Promise strings.\n        return allSignedPromises;\n    }\n\n    /**\n     * This function helps in viewing promises. It prints all of the signed promise titles\n     * for a single user and returns an array of strings.\n     * @return A string array containing all of the signed promise titles for a single user.\n     */\n\n    function viewAllSignedPromiseTitles() public view returns(string[] memory)\n    {\n        // Retrieve the full list of signed promises for this user.\n        uint256[] memory signedPromisesAsIntegers = viewSignedPromises();\n\n        string[] memory allSignedPromises = new string[](signedPromisesAsIntegers.length);\n\n        // Call view promise on each one and add the strings to allSignedPromises array.\n        for (uint index = 0; index < signedPromisesAsIntegers.length; index++)\n        {\n            allSignedPromises[index] = viewPromiseTitle(signedPromisesAsIntegers[index]);\n        }\n        \n        // Return the array of Promise strings.\n        return allSignedPromises;\n    }\n\n    /**\n     * This function helps in viewing promises. It prints all of the creators of signed promises\n     * for a single user and returns an array of strings.\n     * @return A string array containing all of the creators of signed promises for a single user.\n     */\n\n    function viewAllSignedPromiseBuilders() public view returns(string[] memory)\n    {\n        // Retrieve the full list of signed promises for this user.\n        uint256[] memory signedPromisesAsIntegers = viewSignedPromises();\n\n        string[] memory allSignedPromises = new string[](signedPromisesAsIntegers.length);\n\n        // Call view promise builder on each one and add the strings to allSignedPromises array.\n        for (uint index = 0; index < signedPromisesAsIntegers.length; index++)\n        {\n            allSignedPromises[index] = viewPromiseBuilderAddress(signedPromisesAsIntegers[index]);\n        }\n        \n        // Return the array of Promise strings.\n        return allSignedPromises;\n    }\n\n    /**\n     * This function helps in viewing promises. It prints all of the recipients of signed promises\n     * for a single user and returns an array of strings.\n     * @return A string array containing all of the signed promises for a single user.\n     */\n\n    function viewAllSignedPromiseRecipients() public view returns(string[] memory)\n    {\n        // Retrieve the full list of signed promises for this user.\n        uint256[] memory signedPromisesAsIntegers = viewSignedPromises();\n\n        string[] memory allSignedPromises = new string[](signedPromisesAsIntegers.length);\n\n        // Call view promise on each one and add the strings to allSignedPromises array.\n        for (uint index = 0; index < signedPromisesAsIntegers.length; index++)\n        {\n            allSignedPromises[index] = viewPromiseRecipientAddress(signedPromisesAsIntegers[index]);\n        }\n        \n        // Return the array of Promise strings.\n        return allSignedPromises;\n    }\n    /******************************Signed Promises Helpers End**********************************************/\n\n    /******************************Rejected Promises Helpers Start******************************************/\n    \n    /**\n     * This function helps in viewing promises. It prints all of the rejected promises\n     * for a single user and returns an array of strings.\n     * @return A string array containing all of the rejected promises for a single user.\n     */\n\n    function viewAllRejectedPromises() public view returns(string[] memory)\n    {\n        // Retrieve the full list of rejected promises for this user.\n        uint256[] memory rejectedPromisesAsIntegers = viewRejectedPromises();\n\n        string[] memory allRejectedPromises = new string[](rejectedPromisesAsIntegers.length);\n\n        // Call view promise on each one and add the strings to allRejectedPromises array.\n        for (uint index = 0; index < rejectedPromisesAsIntegers.length; index++)\n        {\n            allRejectedPromises[index] = viewPromise(rejectedPromisesAsIntegers[index]);\n        }\n        \n        // Return the array of Promise strings.\n        return allRejectedPromises;\n    }\n\n    /**\n     * This function helps in viewing promises. It prints all of the rejected promise titles\n     * for a single user and returns an array of strings.\n     * @return A string array containing all of the rejected promise titles for a single user.\n     */\n\n    function viewAllRejectedPromiseTitles() public view returns(string[] memory)\n    {\n        // Retrieve the full list of rejected promises for this user.\n        uint256[] memory rejectedPromisesAsIntegers = viewRejectedPromises();\n\n        string[] memory allRejectedPromises = new string[](rejectedPromisesAsIntegers.length);\n\n        // Call view promise on each one and add the strings to allRejectedPromises array.\n        for (uint index = 0; index < rejectedPromisesAsIntegers.length; index++)\n        {\n            allRejectedPromises[index] = viewPromiseTitle(rejectedPromisesAsIntegers[index]);\n        }\n        \n        // Return the array of Promise strings.\n        return allRejectedPromises;\n    }\n\n    /**\n     * This function helps in viewing promises. It prints all of the creators of rejected promises\n     * for a single user and returns an array of strings.\n     * @return A string array containing all of the creators of rejected promises for a single user.\n     */\n\n    function viewAllRejectedPromiseBuilders() public view returns(string[] memory)\n    {\n        // Retrieve the full list of rejected promises for this user.\n        uint256[] memory rejectedPromisesAsIntegers = viewRejectedPromises();\n\n        string[] memory allRejectedPromises = new string[](rejectedPromisesAsIntegers.length);\n\n        // Call view promise builder on each one and add the strings to allRejectedPromises array.\n        for (uint index = 0; index < rejectedPromisesAsIntegers.length; index++)\n        {\n            allRejectedPromises[index] = viewPromiseBuilderAddress(rejectedPromisesAsIntegers[index]);\n        }\n        \n        // Return the array of Promise strings.\n        return allRejectedPromises;\n    }\n\n    /**\n     * This function helps in viewing promises. It prints all of the recipients of rejected promises\n     * for a single user and returns an array of strings.\n     * @return A string array containing all of the rejected promises for a single user.\n     */\n\n    function viewAllRejectedPromiseRecipients() public view returns(string[] memory)\n    {\n        // Retrieve the full list of rejected promises for this user.\n        uint256[] memory rejectedPromisesAsIntegers = viewRejectedPromises();\n\n        string[] memory allRejectedPromises = new string[](rejectedPromisesAsIntegers.length);\n\n        // Call view promise on each one and add the strings to allRejectedPromises array.\n        for (uint index = 0; index < rejectedPromisesAsIntegers.length; index++)\n        {\n            allRejectedPromises[index] = viewPromiseRecipientAddress(rejectedPromisesAsIntegers[index]);\n        }\n        \n        // Return the array of Promise strings.\n        return allRejectedPromises;\n    }\n    /******************************Rejected Promises Helpers End******************************************/\n\n    /**\n     * This function helps in converting an address to a string.\n     * @param _addr An address.\n     * @return A human readable string.\n     */\n    function addressToString(address _addr) public pure returns(string memory) \n    {\n        bytes32 value = bytes32(uint256(_addr));\n        bytes memory alphabet = \"0123456789abcdef\";\n\n        bytes memory addressAsString = new bytes(51);\n        addressAsString[0] = '0';\n        addressAsString[1] = 'x';\n        for (uint256 i = 0; i < 20; i++) {\n            addressAsString[2+i*2] = alphabet[uint8(value[i + 12] >> 4)];\n            addressAsString[3+i*2] = alphabet[uint8(value[i + 12] & 0x0f)];\n        }\n        return string(addressAsString);\n    }\n}",
  "sourcePath": "/Users/Alicia/ECS265/Promise_WebApp/promise/contracts/SolidPromise.sol",
  "compiler": {
    "name": "solc",
    "version": "0.5.16+commit.9c3226ce.Emscripten.clang"
  },
  "schemaVersion": "3.3.2",
  "updatedAt": "2020-12-10T02:01:30.682Z",
  "networkType": "ethereum",
  "devdoc": {
    "methods": {
      "addPromise(address,address,string,string)": {
        "params": {
          "_oath": "The contacts of the contract.",
          "_oathTitle": "The title of the contract.",
          "builder": "The address of the creator.",
          "recipient": "The address of the recipient."
        },
        "return": "The total count of promises."
      },
      "addressToString(address)": {
        "params": {
          "_addr": "An address."
        },
        "return": "A human readable string."
      },
      "rejectPromise(uint256)": {
        "params": {
          "index": "The index of the promise in the pendingPromises mapping."
        }
      },
      "viewAllPendingPromiseBuilders()": {
        "return": "A string array containing all of the pending promises for a single user."
      },
      "viewAllPendingPromiseIndices()": {
        "return": "An unit array containing all of the pending promises for a single user."
      },
      "viewAllPendingPromiseRecipients()": {
        "return": "A string array containing all of the pending promises for a single user."
      },
      "viewAllPendingPromiseTitles()": {
        "return": "A string array containing all of the pending promises for a single user."
      },
      "viewAllPendingPromises()": {
        "return": "A string array containing all of the pending promises for a single user."
      },
      "viewAllRejectedPromiseBuilders()": {
        "return": "A string array containing all of the creators of rejected promises for a single user."
      },
      "viewAllRejectedPromiseRecipients()": {
        "return": "A string array containing all of the rejected promises for a single user."
      },
      "viewAllRejectedPromiseTitles()": {
        "return": "A string array containing all of the rejected promise titles for a single user."
      },
      "viewAllRejectedPromises()": {
        "return": "A string array containing all of the rejected promises for a single user."
      },
      "viewAllSignedPromiseBuilders()": {
        "return": "A string array containing all of the creators of signed promises for a single user."
      },
      "viewAllSignedPromiseRecipients()": {
        "return": "A string array containing all of the signed promises for a single user."
      },
      "viewAllSignedPromiseTitles()": {
        "return": "A string array containing all of the signed promise titles for a single user."
      },
      "viewAllSignedPromises()": {
        "return": "A string array containing all of the signed promises for a single user."
      },
      "viewPendingPromises()": {
        "return": "A mapping containing all pending contracts for user."
      },
      "viewPromise(uint256)": {
        "params": {
          "index": "The index of promise that is within the pendingPromises mapping."
        },
        "return": "The contents of the promise."
      },
      "viewPromiseBuilderAddress(uint256)": {
        "return": "The contract creator's public address converted to a string."
      },
      "viewPromiseIndex(uint256)": {
        "return": "index The index of the promise in the pendingPromises mapping."
      },
      "viewPromiseRecipientAddress(uint256)": {
        "return": "The contract recipient's public address converted to a string."
      },
      "viewPromiseTitle(uint256)": {
        "params": {
          "index": "The index of promise that is within the pendingPromises mapping."
        },
        "return": "The contents of the promise."
      },
      "viewRejectedPromises()": {
        "return": "A mapping containing all rejected contracts for user."
      },
      "viewSignedPromises()": {
        "return": "An array containing all signed contracts for user."
      }
    }
  },
  "userdoc": {
    "methods": {
      "addPromise(address,address,string,string)": {
        "notice": "This function is used to create a promise. After the builder creates the contract, it will be added to the pendingContracts mapping of the creator and the recipient. This function will fail unless the account entered as builder is the same account that  is creating the promise."
      },
      "addressToString(address)": {
        "notice": "This function helps in converting an address to a string."
      },
      "constructor": "Constructor",
      "rejectPromise(uint256)": {
        "notice": "This function is used by the recipient in order to reject the promise. After the promise is rejected it is added to the rejectedPromises mapping. This function will fail if it is called by an account that is not the recipient to the promise."
      },
      "viewAllPendingPromiseBuilders()": {
        "notice": "This function helps in viewing promises. It prints all of the pending promise titles and contents for a single user and returns an array of strings."
      },
      "viewAllPendingPromiseIndices()": {
        "notice": "This function helps in signining promises. It returns all of the indices the identify promises for a single user and returns an array of unit."
      },
      "viewAllPendingPromiseRecipients()": {
        "notice": "This function helps in viewing promises. It prints all of the pending promise titles and contents for a single user and returns an array of strings."
      },
      "viewAllPendingPromiseTitles()": {
        "notice": "This function helps in viewing promises. It prints all of the pending promise titles and contents for a single user and returns an array of strings."
      },
      "viewAllPendingPromises()": {
        "notice": "This function helps in viewing promises. It prints all of the pending promise titles and contents for a single user and returns an array of strings."
      },
      "viewAllRejectedPromiseBuilders()": {
        "notice": "This function helps in viewing promises. It prints all of the creators of rejected promises for a single user and returns an array of strings."
      },
      "viewAllRejectedPromiseRecipients()": {
        "notice": "This function helps in viewing promises. It prints all of the recipients of rejected promises for a single user and returns an array of strings."
      },
      "viewAllRejectedPromiseTitles()": {
        "notice": "This function helps in viewing promises. It prints all of the rejected promise titles for a single user and returns an array of strings."
      },
      "viewAllRejectedPromises()": {
        "notice": "This function helps in viewing promises. It prints all of the rejected promises for a single user and returns an array of strings."
      },
      "viewAllSignedPromiseBuilders()": {
        "notice": "This function helps in viewing promises. It prints all of the creators of signed promises for a single user and returns an array of strings."
      },
      "viewAllSignedPromiseRecipients()": {
        "notice": "This function helps in viewing promises. It prints all of the recipients of signed promises for a single user and returns an array of strings."
      },
      "viewAllSignedPromiseTitles()": {
        "notice": "This function helps in viewing promises. It prints all of the signed promise titles for a single user and returns an array of strings."
      },
      "viewAllSignedPromises()": {
        "notice": "This function helps in viewing promises. It prints all of the signed promises for a single user and returns an array of strings."
      },
      "viewPendingPromises()": {
        "notice": "This function returns a mapping containing all of the pending promises for one user."
      },
      "viewPromise(uint256)": {
        "notice": "This function is used by the involved parties in order to view the contents of the contract. This function will fail if a user not involved with the contract attempts to view it by using index."
      },
      "viewPromiseBuilderAddress(uint256)": {
        "notice": "This function is used by the involved parties in order to view the public address of the creator of a contract. This function will fail if a user not involved with the contract attempts to view it by using index."
      },
      "viewPromiseIndex(uint256)": {
        "notice": "This function is used by the recipient party in order to sign and confirm the promise. This function will fail if a party not involved with the contract attempts to sign it by using its index."
      },
      "viewPromiseRecipientAddress(uint256)": {
        "notice": "This function is used by the involved parties in order to view the public address of the recipient of a contract. This function will fail if a user not involved with the contract attempts to view it by using index."
      },
      "viewPromiseTitle(uint256)": {
        "notice": "This function is used by the involved parties in order to view the title of the contract. This function will fail if a user not involved with the contract attempts to view it by using index."
      },
      "viewRejectedPromises()": {
        "notice": "This function returns a mapping containing all of the rejected promises for one user."
      },
      "viewSignedPromises()": {
        "notice": "This function returns an array containing all of the signed promises for one user."
      }
    }
  }
}